{
  "_format": "hh-sol-artifact-1",
  "contractName": "StickmanBattleGame",
  "sourceName": "contracts/StickmanBattleGame.sol",
  "abi": [
    {
      "inputs": [
        {
          "internalType": "string[]",
          "name": "characterNames",
          "type": "string[]"
        },
        {
          "internalType": "string[]",
          "name": "characterImageURIs",
          "type": "string[]"
        },
        {
          "internalType": "string[]",
          "name": "characterWeapons",
          "type": "string[]"
        },
        {
          "internalType": "uint256[]",
          "name": "characterHp",
          "type": "uint256[]"
        },
        {
          "internalType": "uint256[]",
          "name": "characterAttackDmg",
          "type": "uint256[]"
        },
        {
          "internalType": "string",
          "name": "bossName",
          "type": "string"
        },
        {
          "internalType": "string",
          "name": "bossImageURI",
          "type": "string"
        },
        {
          "internalType": "string",
          "name": "bossWeapon",
          "type": "string"
        },
        {
          "internalType": "uint256",
          "name": "bossHp",
          "type": "uint256"
        },
        {
          "internalType": "uint256",
          "name": "bossAttackDamage",
          "type": "uint256"
        }
      ],
      "stateMutability": "nonpayable",
      "type": "constructor"
    },
    {
      "anonymous": false,
      "inputs": [
        {
          "indexed": true,
          "internalType": "address",
          "name": "owner",
          "type": "address"
        },
        {
          "indexed": true,
          "internalType": "address",
          "name": "approved",
          "type": "address"
        },
        {
          "indexed": true,
          "internalType": "uint256",
          "name": "tokenId",
          "type": "uint256"
        }
      ],
      "name": "Approval",
      "type": "event"
    },
    {
      "anonymous": false,
      "inputs": [
        {
          "indexed": true,
          "internalType": "address",
          "name": "owner",
          "type": "address"
        },
        {
          "indexed": true,
          "internalType": "address",
          "name": "operator",
          "type": "address"
        },
        {
          "indexed": false,
          "internalType": "bool",
          "name": "approved",
          "type": "bool"
        }
      ],
      "name": "ApprovalForAll",
      "type": "event"
    },
    {
      "anonymous": false,
      "inputs": [
        {
          "indexed": false,
          "internalType": "uint256",
          "name": "newBossHp",
          "type": "uint256"
        },
        {
          "indexed": false,
          "internalType": "uint256",
          "name": "newPlayerHp",
          "type": "uint256"
        }
      ],
      "name": "AttackComplete",
      "type": "event"
    },
    {
      "anonymous": false,
      "inputs": [
        {
          "indexed": false,
          "internalType": "address",
          "name": "sender",
          "type": "address"
        },
        {
          "indexed": false,
          "internalType": "uint256",
          "name": "tokenId",
          "type": "uint256"
        },
        {
          "indexed": false,
          "internalType": "uint256",
          "name": "characterIndex",
          "type": "uint256"
        }
      ],
      "name": "CharacterNFTMinted",
      "type": "event"
    },
    {
      "anonymous": false,
      "inputs": [
        {
          "indexed": true,
          "internalType": "address",
          "name": "from",
          "type": "address"
        },
        {
          "indexed": true,
          "internalType": "address",
          "name": "to",
          "type": "address"
        },
        {
          "indexed": true,
          "internalType": "uint256",
          "name": "tokenId",
          "type": "uint256"
        }
      ],
      "name": "Transfer",
      "type": "event"
    },
    {
      "inputs": [
        {
          "internalType": "address",
          "name": "to",
          "type": "address"
        },
        {
          "internalType": "uint256",
          "name": "tokenId",
          "type": "uint256"
        }
      ],
      "name": "approve",
      "outputs": [],
      "stateMutability": "nonpayable",
      "type": "function"
    },
    {
      "inputs": [],
      "name": "attackBoss",
      "outputs": [],
      "stateMutability": "nonpayable",
      "type": "function"
    },
    {
      "inputs": [
        {
          "internalType": "address",
          "name": "owner",
          "type": "address"
        }
      ],
      "name": "balanceOf",
      "outputs": [
        {
          "internalType": "uint256",
          "name": "",
          "type": "uint256"
        }
      ],
      "stateMutability": "view",
      "type": "function"
    },
    {
      "inputs": [],
      "name": "bigBoss",
      "outputs": [
        {
          "internalType": "string",
          "name": "name",
          "type": "string"
        },
        {
          "internalType": "string",
          "name": "imageURI",
          "type": "string"
        },
        {
          "internalType": "string",
          "name": "weapon",
          "type": "string"
        },
        {
          "internalType": "uint256",
          "name": "hp",
          "type": "uint256"
        },
        {
          "internalType": "uint256",
          "name": "maxHp",
          "type": "uint256"
        },
        {
          "internalType": "uint256",
          "name": "attackDamage",
          "type": "uint256"
        }
      ],
      "stateMutability": "view",
      "type": "function"
    },
    {
      "inputs": [],
      "name": "checkIfUserHasNFT",
      "outputs": [
        {
          "components": [
            {
              "internalType": "uint256",
              "name": "characterIndex",
              "type": "uint256"
            },
            {
              "internalType": "string",
              "name": "name",
              "type": "string"
            },
            {
              "internalType": "string",
              "name": "imageURI",
              "type": "string"
            },
            {
              "internalType": "string",
              "name": "weapon",
              "type": "string"
            },
            {
              "internalType": "uint256",
              "name": "hp",
              "type": "uint256"
            },
            {
              "internalType": "uint256",
              "name": "maxHp",
              "type": "uint256"
            },
            {
              "internalType": "uint256",
              "name": "attackDamage",
              "type": "uint256"
            }
          ],
          "internalType": "struct StickmanBattleGame.CharacterAttributes",
          "name": "",
          "type": "tuple"
        }
      ],
      "stateMutability": "view",
      "type": "function"
    },
    {
      "inputs": [],
      "name": "getAllDefaultCharacters",
      "outputs": [
        {
          "components": [
            {
              "internalType": "uint256",
              "name": "characterIndex",
              "type": "uint256"
            },
            {
              "internalType": "string",
              "name": "name",
              "type": "string"
            },
            {
              "internalType": "string",
              "name": "imageURI",
              "type": "string"
            },
            {
              "internalType": "string",
              "name": "weapon",
              "type": "string"
            },
            {
              "internalType": "uint256",
              "name": "hp",
              "type": "uint256"
            },
            {
              "internalType": "uint256",
              "name": "maxHp",
              "type": "uint256"
            },
            {
              "internalType": "uint256",
              "name": "attackDamage",
              "type": "uint256"
            }
          ],
          "internalType": "struct StickmanBattleGame.CharacterAttributes[]",
          "name": "",
          "type": "tuple[]"
        }
      ],
      "stateMutability": "view",
      "type": "function"
    },
    {
      "inputs": [
        {
          "internalType": "uint256",
          "name": "tokenId",
          "type": "uint256"
        }
      ],
      "name": "getApproved",
      "outputs": [
        {
          "internalType": "address",
          "name": "",
          "type": "address"
        }
      ],
      "stateMutability": "view",
      "type": "function"
    },
    {
      "inputs": [],
      "name": "getBigBoss",
      "outputs": [
        {
          "components": [
            {
              "internalType": "string",
              "name": "name",
              "type": "string"
            },
            {
              "internalType": "string",
              "name": "imageURI",
              "type": "string"
            },
            {
              "internalType": "string",
              "name": "weapon",
              "type": "string"
            },
            {
              "internalType": "uint256",
              "name": "hp",
              "type": "uint256"
            },
            {
              "internalType": "uint256",
              "name": "maxHp",
              "type": "uint256"
            },
            {
              "internalType": "uint256",
              "name": "attackDamage",
              "type": "uint256"
            }
          ],
          "internalType": "struct StickmanBattleGame.BigBoss",
          "name": "",
          "type": "tuple"
        }
      ],
      "stateMutability": "view",
      "type": "function"
    },
    {
      "inputs": [
        {
          "internalType": "address",
          "name": "owner",
          "type": "address"
        },
        {
          "internalType": "address",
          "name": "operator",
          "type": "address"
        }
      ],
      "name": "isApprovedForAll",
      "outputs": [
        {
          "internalType": "bool",
          "name": "",
          "type": "bool"
        }
      ],
      "stateMutability": "view",
      "type": "function"
    },
    {
      "inputs": [
        {
          "internalType": "uint256",
          "name": "_characterIndex",
          "type": "uint256"
        }
      ],
      "name": "mintCharacterNFT",
      "outputs": [],
      "stateMutability": "nonpayable",
      "type": "function"
    },
    {
      "inputs": [],
      "name": "name",
      "outputs": [
        {
          "internalType": "string",
          "name": "",
          "type": "string"
        }
      ],
      "stateMutability": "view",
      "type": "function"
    },
    {
      "inputs": [
        {
          "internalType": "uint256",
          "name": "",
          "type": "uint256"
        }
      ],
      "name": "nftHolderAttributes",
      "outputs": [
        {
          "internalType": "uint256",
          "name": "characterIndex",
          "type": "uint256"
        },
        {
          "internalType": "string",
          "name": "name",
          "type": "string"
        },
        {
          "internalType": "string",
          "name": "imageURI",
          "type": "string"
        },
        {
          "internalType": "string",
          "name": "weapon",
          "type": "string"
        },
        {
          "internalType": "uint256",
          "name": "hp",
          "type": "uint256"
        },
        {
          "internalType": "uint256",
          "name": "maxHp",
          "type": "uint256"
        },
        {
          "internalType": "uint256",
          "name": "attackDamage",
          "type": "uint256"
        }
      ],
      "stateMutability": "view",
      "type": "function"
    },
    {
      "inputs": [
        {
          "internalType": "address",
          "name": "",
          "type": "address"
        }
      ],
      "name": "nftHolders",
      "outputs": [
        {
          "internalType": "uint256",
          "name": "",
          "type": "uint256"
        }
      ],
      "stateMutability": "view",
      "type": "function"
    },
    {
      "inputs": [
        {
          "internalType": "uint256",
          "name": "tokenId",
          "type": "uint256"
        }
      ],
      "name": "ownerOf",
      "outputs": [
        {
          "internalType": "address",
          "name": "",
          "type": "address"
        }
      ],
      "stateMutability": "view",
      "type": "function"
    },
    {
      "inputs": [],
      "name": "revivePlayer",
      "outputs": [],
      "stateMutability": "nonpayable",
      "type": "function"
    },
    {
      "inputs": [
        {
          "internalType": "address",
          "name": "from",
          "type": "address"
        },
        {
          "internalType": "address",
          "name": "to",
          "type": "address"
        },
        {
          "internalType": "uint256",
          "name": "tokenId",
          "type": "uint256"
        }
      ],
      "name": "safeTransferFrom",
      "outputs": [],
      "stateMutability": "nonpayable",
      "type": "function"
    },
    {
      "inputs": [
        {
          "internalType": "address",
          "name": "from",
          "type": "address"
        },
        {
          "internalType": "address",
          "name": "to",
          "type": "address"
        },
        {
          "internalType": "uint256",
          "name": "tokenId",
          "type": "uint256"
        },
        {
          "internalType": "bytes",
          "name": "_data",
          "type": "bytes"
        }
      ],
      "name": "safeTransferFrom",
      "outputs": [],
      "stateMutability": "nonpayable",
      "type": "function"
    },
    {
      "inputs": [
        {
          "internalType": "address",
          "name": "operator",
          "type": "address"
        },
        {
          "internalType": "bool",
          "name": "approved",
          "type": "bool"
        }
      ],
      "name": "setApprovalForAll",
      "outputs": [],
      "stateMutability": "nonpayable",
      "type": "function"
    },
    {
      "inputs": [
        {
          "internalType": "bytes4",
          "name": "interfaceId",
          "type": "bytes4"
        }
      ],
      "name": "supportsInterface",
      "outputs": [
        {
          "internalType": "bool",
          "name": "",
          "type": "bool"
        }
      ],
      "stateMutability": "view",
      "type": "function"
    },
    {
      "inputs": [],
      "name": "symbol",
      "outputs": [
        {
          "internalType": "string",
          "name": "",
          "type": "string"
        }
      ],
      "stateMutability": "view",
      "type": "function"
    },
    {
      "inputs": [
        {
          "internalType": "uint256",
          "name": "_tokenId",
          "type": "uint256"
        }
      ],
      "name": "tokenURI",
      "outputs": [
        {
          "internalType": "string",
          "name": "",
          "type": "string"
        }
      ],
      "stateMutability": "view",
      "type": "function"
    },
    {
      "inputs": [
        {
          "internalType": "address",
          "name": "from",
          "type": "address"
        },
        {
          "internalType": "address",
          "name": "to",
          "type": "address"
        },
        {
          "internalType": "uint256",
          "name": "tokenId",
          "type": "uint256"
        }
      ],
      "name": "transferFrom",
      "outputs": [],
      "stateMutability": "nonpayable",
      "type": "function"
    }
  ],
  "bytecode": "0x60806040523480156200001157600080fd5b506040516200682f3803806200682f833981810160405281019062000037919062000e21565b6040518060400160405280601281526020017f537469636b6d616e426174746c6547616d6500000000000000000000000000008152506040518060400160405280600481526020017f534d4247000000000000000000000000000000000000000000000000000000008152508160009080519060200190620000bb92919062000b89565b508060019080519060200190620000d492919062000b89565b5050506040518060c0016040528086815260200185815260200184815260200183815260200183815260200182815250600a60008201518160000190805190602001906200012492919062000b89565b5060208201518160010190805190602001906200014392919062000b89565b5060408201518160020190805190602001906200016292919062000b89565b50606082015181600301556080820151816004015560a08201518160050155905050620002e56040518060600160405280602981526020016200680660299139600a6000018054620001b49062001255565b80601f0160208091040260200160405190810160405280929190818152602001828054620001e29062001255565b8015620002335780601f10620002075761010080835404028352916020019162000233565b820191906000526020600020905b8154815290600101906020018083116200021557829003601f168201915b5050505050600a60030154600a6001018054620002509062001255565b80601f01602080910402602001604051908101604052809291908181526020018280546200027e9062001255565b8015620002cf5780601f10620002a357610100808354040283529160200191620002cf565b820191906000526020600020905b815481529060010190602001808311620002b157829003601f168201915b5050505050620009f560201b620023b51760201c565b6200045c6040518060400160405280601481526020017f25732069732061726d656420776974683a202573000000000000000000000000815250600a6000018054620003319062001255565b80601f01602080910402602001604051908101604052809291908181526020018280546200035f9062001255565b8015620003b05780601f106200038457610100808354040283529160200191620003b0565b820191906000526020600020905b8154815290600101906020018083116200039257829003601f168201915b5050505050600a6002018054620003c79062001255565b80601f0160208091040260200160405190810160405280929190818152602001828054620003f59062001255565b8015620004465780601f106200041a5761010080835404028352916020019162000446565b820191906000526020600020905b8154815290600101906020018083116200042857829003601f168201915b505050505062000aa160201b620024571760201c565b60005b8a51811015620009cd5760076040518060e001604052808381526020018d8481518110620004b6577f4e487b7100000000000000000000000000000000000000000000000000000000600052603260045260246000fd5b602002602001015181526020018c8481518110620004fd577f4e487b7100000000000000000000000000000000000000000000000000000000600052603260045260246000fd5b602002602001015181526020018b848151811062000544577f4e487b7100000000000000000000000000000000000000000000000000000000600052603260045260246000fd5b602002602001015181526020018a84815181106200058b577f4e487b7100000000000000000000000000000000000000000000000000000000600052603260045260246000fd5b602002602001015181526020018a8481518110620005d2577f4e487b7100000000000000000000000000000000000000000000000000000000600052603260045260246000fd5b6020026020010151815260200189848151811062000619577f4e487b7100000000000000000000000000000000000000000000000000000000600052603260045260246000fd5b602002602001015181525090806001815401808255809150506001900390600052602060002090600702016000909190919091506000820151816000015560208201518160010190805190602001906200067592919062000b89565b5060408201518160020190805190602001906200069492919062000b89565b506060820151816003019080519060200190620006b392919062000b89565b506080820151816004015560a0820151816005015560c08201518160060155505060006007828154811062000711577f4e487b7100000000000000000000000000000000000000000000000000000000600052603260045260246000fd5b90600052602060002090600702016040518060e001604052908160008201548152602001600182018054620007469062001255565b80601f0160208091040260200160405190810160405280929190818152602001828054620007749062001255565b8015620007c55780601f106200079957610100808354040283529160200191620007c5565b820191906000526020600020905b815481529060010190602001808311620007a757829003601f168201915b50505050508152602001600282018054620007e09062001255565b80601f01602080910402602001604051908101604052809291908181526020018280546200080e9062001255565b80156200085f5780601f1062000833576101008083540402835291602001916200085f565b820191906000526020600020905b8154815290600101906020018083116200084157829003601f168201915b505050505081526020016003820180546200087a9062001255565b80601f0160208091040260200160405190810160405280929190818152602001828054620008a89062001255565b8015620008f95780601f10620008cd57610100808354040283529160200191620008f9565b820191906000526020600020905b815481529060010190602001808311620008db57829003601f168201915b505050505081526020016004820154815260200160058201548152602001600682015481525050905062000960604051806060016040528060298152602001620067dd60299139826020015183608001518460400151620009f560201b620023b51760201c565b620009b56040518060400160405280601b81526020017f25732069732061726d6564207769746820776561706f6e3a20257300000000008152508260200151836060015162000aa160201b620024571760201c565b50600181620009c59190620011b8565b90506200045f565b50620009e5600662000b4a60201b620024f61760201c565b5050505050505050505062001379565b62000a9b8484848460405160240162000a1294939291906200107d565b6040516020818303038152906040527f8d142cdd000000000000000000000000000000000000000000000000000000007bffffffffffffffffffffffffffffffffffffffffffffffffffffffff19166020820180517bffffffffffffffffffffffffffffffffffffffffffffffffffffffff838183161783525050505062000b6060201b60201c565b50505050565b62000b4583838360405160240162000abc939291906200102b565b6040516020818303038152906040527f2ced7cef000000000000000000000000000000000000000000000000000000007bffffffffffffffffffffffffffffffffffffffffffffffffffffffff19166020820180517bffffffffffffffffffffffffffffffffffffffffffffffffffffffff838183161783525050505062000b6060201b60201c565b505050565b6001816000016000828254019250508190555050565b60008151905060006a636f6e736f6c652e6c6f679050602083016000808483855afa5050505050565b82805462000b979062001255565b90600052602060002090601f01602090048101928262000bbb576000855562000c07565b82601f1062000bd657805160ff191683800117855562000c07565b8280016001018555821562000c07579182015b8281111562000c0657825182559160200191906001019062000be9565b5b50905062000c16919062000c1a565b5090565b5b8082111562000c3557600081600090555060010162000c1b565b5090565b600062000c5062000c4a8462001108565b620010df565b9050808382526020820190508285602086028201111562000c7057600080fd5b60005b8581101562000cbf57815167ffffffffffffffff81111562000c9457600080fd5b80860162000ca3898262000ddd565b8552602085019450602084019350505060018101905062000c73565b5050509392505050565b600062000ce062000cda8462001137565b620010df565b9050808382526020820190508285602086028201111562000d0057600080fd5b60005b8581101562000d34578162000d19888262000e0a565b84526020840193506020830192505060018101905062000d03565b5050509392505050565b600062000d5562000d4f8462001166565b620010df565b90508281526020810184848401111562000d6e57600080fd5b62000d7b8482856200121f565b509392505050565b600082601f83011262000d9557600080fd5b815162000da784826020860162000c39565b91505092915050565b600082601f83011262000dc257600080fd5b815162000dd484826020860162000cc9565b91505092915050565b600082601f83011262000def57600080fd5b815162000e0184826020860162000d3e565b91505092915050565b60008151905062000e1b816200135f565b92915050565b6000806000806000806000806000806101408b8d03121562000e4257600080fd5b60008b015167ffffffffffffffff81111562000e5d57600080fd5b62000e6b8d828e0162000d83565b9a505060208b015167ffffffffffffffff81111562000e8957600080fd5b62000e978d828e0162000d83565b99505060408b015167ffffffffffffffff81111562000eb557600080fd5b62000ec38d828e0162000d83565b98505060608b015167ffffffffffffffff81111562000ee157600080fd5b62000eef8d828e0162000db0565b97505060808b015167ffffffffffffffff81111562000f0d57600080fd5b62000f1b8d828e0162000db0565b96505060a08b015167ffffffffffffffff81111562000f3957600080fd5b62000f478d828e0162000ddd565b95505060c08b015167ffffffffffffffff81111562000f6557600080fd5b62000f738d828e0162000ddd565b94505060e08b015167ffffffffffffffff81111562000f9157600080fd5b62000f9f8d828e0162000ddd565b93505061010062000fb38d828e0162000e0a565b92505061012062000fc78d828e0162000e0a565b9150509295989b9194979a5092959850565b600062000fe6826200119c565b62000ff28185620011a7565b9350620010048185602086016200121f565b6200100f816200134e565b840191505092915050565b620010258162001215565b82525050565b6000606082019050818103600083015262001047818662000fd9565b905081810360208301526200105d818562000fd9565b9050818103604083015262001073818462000fd9565b9050949350505050565b6000608082019050818103600083015262001099818762000fd9565b90508181036020830152620010af818662000fd9565b9050620010c060408301856200101a565b8181036060830152620010d4818462000fd9565b905095945050505050565b6000620010eb620010fe565b9050620010f982826200128b565b919050565b6000604051905090565b600067ffffffffffffffff8211156200112657620011256200131f565b5b602082029050602081019050919050565b600067ffffffffffffffff8211156200115557620011546200131f565b5b602082029050602081019050919050565b600067ffffffffffffffff8211156200118457620011836200131f565b5b6200118f826200134e565b9050602081019050919050565b600081519050919050565b600082825260208201905092915050565b6000620011c58262001215565b9150620011d28362001215565b9250827fffffffffffffffffffffffffffffffffffffffffffffffffffffffffffffffff038211156200120a5762001209620012c1565b5b828201905092915050565b6000819050919050565b60005b838110156200123f57808201518184015260208101905062001222565b838111156200124f576000848401525b50505050565b600060028204905060018216806200126e57607f821691505b60208210811415620012855762001284620012f0565b5b50919050565b62001296826200134e565b810181811067ffffffffffffffff82111715620012b857620012b76200131f565b5b80604052505050565b7f4e487b7100000000000000000000000000000000000000000000000000000000600052601160045260246000fd5b7f4e487b7100000000000000000000000000000000000000000000000000000000600052602260045260246000fd5b7f4e487b7100000000000000000000000000000000000000000000000000000000600052604160045260246000fd5b6000601f19601f8301169050919050565b6200136a8162001215565b81146200137657600080fd5b50565b61545480620013896000396000f3fe608060405234801561001057600080fd5b50600436106101425760003560e01c806395d89b41116100b8578063b953084e1161007c578063b953084e14610380578063c87b56dd1461039e578063c8cf27f4146103ce578063d4f24c5b146103ec578063e985e9c5146103f6578063f8b81ef71461042657610142565b806395d89b41146102d157806398da4c95146102ef578063a22cb46514610325578063a9c3267914610341578063b88d4fde1461036457610142565b806323b872dd1161010a57806323b872dd146101ff5780632a4c52db1461021b57806342842e0e146102255780636352211e1461024157806370a08231146102715780637df124a1146102a157610142565b806301ffc9a7146101475780630665f9611461017757806306fdde0314610195578063081812fc146101b3578063095ea7b3146101e3575b600080fd5b610161600480360381019061015c9190613926565b610442565b60405161016e9190614242565b60405180910390f35b61017f610524565b60405161018c9190614651565b60405180910390f35b61019d610712565b6040516101aa919061425d565b60405180910390f35b6101cd60048036038101906101c89190613978565b6107a4565b6040516101da9190614182565b60405180910390f35b6101fd60048036038101906101f891906138ea565b610829565b005b610219600480360381019061021491906137e4565b610941565b005b6102236109a1565b005b61023f600480360381019061023a91906137e4565b610be9565b005b61025b60048036038101906102569190613978565b610c09565b6040516102689190614182565b60405180910390f35b61028b6004803603810190610286919061377f565b610cbb565b6040516102989190614695565b60405180910390f35b6102bb60048036038101906102b6919061377f565b610d73565b6040516102c89190614695565b60405180910390f35b6102d9610d8b565b6040516102e6919061425d565b60405180910390f35b61030960048036038101906103049190613978565b610e1d565b60405161031c97969594939291906146b0565b60405180910390f35b61033f600480360381019061033a91906138ae565b610ff7565b005b61034961100d565b60405161035b969594939291906142cb565b60405180910390f35b61037e60048036038101906103799190613833565b6111cf565b005b610388611231565b6040516103959190614220565b60405180910390f35b6103b860048036038101906103b39190613978565b61146e565b6040516103c5919061425d565b60405180910390f35b6103d6611727565b6040516103e39190614673565b60405180910390f35b6103f4611991565b005b610410600480360381019061040b91906137a8565b611e37565b60405161041d9190614242565b60405180910390f35b610440600480360381019061043b9190613978565b611ecb565b005b60007f80ac58cd000000000000000000000000000000000000000000000000000000007bffffffffffffffffffffffffffffffffffffffffffffffffffffffff1916827bffffffffffffffffffffffffffffffffffffffffffffffffffffffff1916148061050d57507f5b5e139f000000000000000000000000000000000000000000000000000000007bffffffffffffffffffffffffffffffffffffffffffffffffffffffff1916827bffffffffffffffffffffffffffffffffffffffffffffffffffffffff1916145b8061051d575061051c8261250c565b5b9050919050565b61052c613598565b600a6040518060c001604052908160008201805461054990614a0b565b80601f016020809104026020016040519081016040528092919081815260200182805461057590614a0b565b80156105c25780601f10610597576101008083540402835291602001916105c2565b820191906000526020600020905b8154815290600101906020018083116105a557829003601f168201915b505050505081526020016001820180546105db90614a0b565b80601f016020809104026020016040519081016040528092919081815260200182805461060790614a0b565b80156106545780601f1061062957610100808354040283529160200191610654565b820191906000526020600020905b81548152906001019060200180831161063757829003601f168201915b5050505050815260200160028201805461066d90614a0b565b80601f016020809104026020016040519081016040528092919081815260200182805461069990614a0b565b80156106e65780601f106106bb576101008083540402835291602001916106e6565b820191906000526020600020905b8154815290600101906020018083116106c957829003601f168201915b505050505081526020016003820154815260200160048201548152602001600582015481525050905090565b60606000805461072190614a0b565b80601f016020809104026020016040519081016040528092919081815260200182805461074d90614a0b565b801561079a5780601f1061076f5761010080835404028352916020019161079a565b820191906000526020600020905b81548152906001019060200180831161077d57829003601f168201915b5050505050905090565b60006107af82612576565b6107ee576040517f08c379a00000000000000000000000000000000000000000000000000000000081526004016107e5906145d1565b60405180910390fd5b6004600083815260200190815260200160002060009054906101000a900473ffffffffffffffffffffffffffffffffffffffff169050919050565b600061083482610c09565b90508073ffffffffffffffffffffffffffffffffffffffff168373ffffffffffffffffffffffffffffffffffffffff1614156108a5576040517f08c379a000000000000000000000000000000000000000000000000000000000815260040161089c90614611565b60405180910390fd5b8073ffffffffffffffffffffffffffffffffffffffff166108c46125e2565b73ffffffffffffffffffffffffffffffffffffffff1614806108f357506108f2816108ed6125e2565b611e37565b5b610932576040517f08c379a000000000000000000000000000000000000000000000000000000000815260040161092990614531565b60405180910390fd5b61093c83836125ea565b505050565b61095261094c6125e2565b826126a3565b610991576040517f08c379a000000000000000000000000000000000000000000000000000000000815260040161098890614631565b60405180910390fd5b61099c838383612781565b505050565b6000600960003373ffffffffffffffffffffffffffffffffffffffff1673ffffffffffffffffffffffffffffffffffffffff1681526020019081526020016000205490506000600860008381526020019081526020016000209050610ab46040518060600160405280603b8152602001615382603b9139826001018054610a2790614a0b565b80601f0160208091040260200160405190810160405280929190818152602001828054610a5390614a0b565b8015610aa05780601f10610a7557610100808354040283529160200191610aa0565b820191906000526020600020905b815481529060010190602001808311610a8357829003601f168201915b5050505050836004015484600601546129dd565b6000816004015411610aef57610ae16040518060600160405280603581526020016153ea60359139612a7f565b806005015481600401819055505b610b2d6040518060400160405280601781526020017f506c6179657220686173206265656e2072657669766564000000000000000000815250612a7f565b610be56040518060600160405280603b8152602001615382603b9139826001018054610b5890614a0b565b80601f0160208091040260200160405190810160405280929190818152602001828054610b8490614a0b565b8015610bd15780601f10610ba657610100808354040283529160200191610bd1565b820191906000526020600020905b815481529060010190602001808311610bb457829003601f168201915b5050505050836004015484600601546129dd565b5050565b610c04838383604051806020016040528060008152506111cf565b505050565b6000806002600084815260200190815260200160002060009054906101000a900473ffffffffffffffffffffffffffffffffffffffff169050600073ffffffffffffffffffffffffffffffffffffffff168173ffffffffffffffffffffffffffffffffffffffff161415610cb2576040517f08c379a0000000000000000000000000000000000000000000000000000000008152600401610ca990614571565b60405180910390fd5b80915050919050565b60008073ffffffffffffffffffffffffffffffffffffffff168273ffffffffffffffffffffffffffffffffffffffff161415610d2c576040517f08c379a0000000000000000000000000000000000000000000000000000000008152600401610d2390614551565b60405180910390fd5b600360008373ffffffffffffffffffffffffffffffffffffffff1673ffffffffffffffffffffffffffffffffffffffff168152602001908152602001600020549050919050565b60096020528060005260406000206000915090505481565b606060018054610d9a90614a0b565b80601f0160208091040260200160405190810160405280929190818152602001828054610dc690614a0b565b8015610e135780601f10610de857610100808354040283529160200191610e13565b820191906000526020600020905b815481529060010190602001808311610df657829003601f168201915b5050505050905090565b6008602052806000526040600020600091509050806000015490806001018054610e4690614a0b565b80601f0160208091040260200160405190810160405280929190818152602001828054610e7290614a0b565b8015610ebf5780601f10610e9457610100808354040283529160200191610ebf565b820191906000526020600020905b815481529060010190602001808311610ea257829003601f168201915b505050505090806002018054610ed490614a0b565b80601f0160208091040260200160405190810160405280929190818152602001828054610f0090614a0b565b8015610f4d5780601f10610f2257610100808354040283529160200191610f4d565b820191906000526020600020905b815481529060010190602001808311610f3057829003601f168201915b505050505090806003018054610f6290614a0b565b80601f0160208091040260200160405190810160405280929190818152602001828054610f8e90614a0b565b8015610fdb5780601f10610fb057610100808354040283529160200191610fdb565b820191906000526020600020905b815481529060010190602001808311610fbe57829003601f168201915b5050505050908060040154908060050154908060060154905087565b6110096110026125e2565b8383612b18565b5050565b600a80600001805461101e90614a0b565b80601f016020809104026020016040519081016040528092919081815260200182805461104a90614a0b565b80156110975780601f1061106c57610100808354040283529160200191611097565b820191906000526020600020905b81548152906001019060200180831161107a57829003601f168201915b5050505050908060010180546110ac90614a0b565b80601f01602080910402602001604051908101604052809291908181526020018280546110d890614a0b565b80156111255780601f106110fa57610100808354040283529160200191611125565b820191906000526020600020905b81548152906001019060200180831161110857829003601f168201915b50505050509080600201805461113a90614a0b565b80601f016020809104026020016040519081016040528092919081815260200182805461116690614a0b565b80156111b35780601f10611188576101008083540402835291602001916111b3565b820191906000526020600020905b81548152906001019060200180831161119657829003601f168201915b5050505050908060030154908060040154908060050154905086565b6111e06111da6125e2565b836126a3565b61121f576040517f08c379a000000000000000000000000000000000000000000000000000000000815260040161121690614631565b60405180910390fd5b61122b84848484612c85565b50505050565b60606007805480602002602001604051908101604052809291908181526020016000905b8282101561146557838290600052602060002090600702016040518060e00160405290816000820154815260200160018201805461129290614a0b565b80601f01602080910402602001604051908101604052809291908181526020018280546112be90614a0b565b801561130b5780601f106112e05761010080835404028352916020019161130b565b820191906000526020600020905b8154815290600101906020018083116112ee57829003601f168201915b5050505050815260200160028201805461132490614a0b565b80601f016020809104026020016040519081016040528092919081815260200182805461135090614a0b565b801561139d5780601f106113725761010080835404028352916020019161139d565b820191906000526020600020905b81548152906001019060200180831161138057829003601f168201915b505050505081526020016003820180546113b690614a0b565b80601f01602080910402602001604051908101604052809291908181526020018280546113e290614a0b565b801561142f5780601f106114045761010080835404028352916020019161142f565b820191906000526020600020905b81548152906001019060200180831161141257829003601f168201915b50505050508152602001600482015481526020016005820154815260200160068201548152505081526020019060010190611255565b50505050905090565b60606000600860008481526020019081526020016000206040518060e0016040529081600082015481526020016001820180546114aa90614a0b565b80601f01602080910402602001604051908101604052809291908181526020018280546114d690614a0b565b80156115235780601f106114f857610100808354040283529160200191611523565b820191906000526020600020905b81548152906001019060200180831161150657829003601f168201915b5050505050815260200160028201805461153c90614a0b565b80601f016020809104026020016040519081016040528092919081815260200182805461156890614a0b565b80156115b55780601f1061158a576101008083540402835291602001916115b5565b820191906000526020600020905b81548152906001019060200180831161159857829003601f168201915b505050505081526020016003820180546115ce90614a0b565b80601f01602080910402602001604051908101604052809291908181526020018280546115fa90614a0b565b80156116475780601f1061161c57610100808354040283529160200191611647565b820191906000526020600020905b81548152906001019060200180831161162a57829003601f168201915b505050505081526020016004820154815260200160058201548152602001600682015481525050905060008160600151905060006116888360800151612ce1565b905060006116998460a00151612ce1565b905060006116aa8560c00151612ce1565b905060006116f286602001516116bf8a612ce1565b8860400151888888886040516020016116de9796959493929190614098565b604051602081830303815290604052612e8e565b90506000816040516020016117079190614160565b604051602081830303815290604052905080975050505050505050919050565b61172f6135ce565b6000600960003373ffffffffffffffffffffffffffffffffffffffff1673ffffffffffffffffffffffffffffffffffffffff168152602001908152602001600020549050600081111561198057600860008281526020019081526020016000206040518060e0016040529081600082015481526020016001820180546117b490614a0b565b80601f01602080910402602001604051908101604052809291908181526020018280546117e090614a0b565b801561182d5780601f106118025761010080835404028352916020019161182d565b820191906000526020600020905b81548152906001019060200180831161181057829003601f168201915b5050505050815260200160028201805461184690614a0b565b80601f016020809104026020016040519081016040528092919081815260200182805461187290614a0b565b80156118bf5780601f10611894576101008083540402835291602001916118bf565b820191906000526020600020905b8154815290600101906020018083116118a257829003601f168201915b505050505081526020016003820180546118d890614a0b565b80601f016020809104026020016040519081016040528092919081815260200182805461190490614a0b565b80156119515780601f1061192657610100808354040283529160200191611951565b820191906000526020600020905b81548152906001019060200180831161193457829003601f168201915b50505050508152602001600482015481526020016005820154815260200160068201548152505091505061198e565b6119886135ce565b80925050505b90565b6000600960003373ffffffffffffffffffffffffffffffffffffffff1673ffffffffffffffffffffffffffffffffffffffff1681526020019081526020016000205490506000600860008381526020019081526020016000209050611aa46040518060600160405280603b8152602001615382603b9139826001018054611a1790614a0b565b80601f0160208091040260200160405190810160405280929190818152602001828054611a4390614a0b565b8015611a905780601f10611a6557610100808354040283529160200191611a90565b820191906000526020600020905b815481529060010190602001808311611a7357829003601f168201915b5050505050836004015484600601546129dd565b611b7c6040518060400160405280601b81526020017f426f73732025732068617320257320485020616e642025732041440000000000815250600a6000018054611aed90614a0b565b80601f0160208091040260200160405190810160405280929190818152602001828054611b1990614a0b565b8015611b665780601f10611b3b57610100808354040283529160200191611b66565b820191906000526020600020905b815481529060010190602001808311611b4957829003601f168201915b5050505050600a60030154600a600501546129dd565b6000816004015411611bc3576040517f08c379a0000000000000000000000000000000000000000000000000000000008152600401611bba90614591565b60405180910390fd5b6000600a6003015411611c0b576040517f08c379a0000000000000000000000000000000000000000000000000000000008152600401611c0290614491565b60405180910390fd5b8060060154600a600301541015611c2c576000600a60030181905550611c4b565b8060060154600a60030154611c419190614921565b600a600301819055505b600a6005015481600401541015611c6b5760008160040181905550611c89565b600a600501548160040154611c809190614921565b81600401819055505b611d3d6040518060600160405280602d81526020016153bd602d9139826003018054611cb490614a0b565b80601f0160208091040260200160405190810160405280929190818152602001828054611ce090614a0b565b8015611d2d5780601f10611d0257610100808354040283529160200191611d2d565b820191906000526020600020905b815481529060010190602001808311611d1057829003601f168201915b5050505050600a6003015461302d565b611df16040518060600160405280603081526020016152e560309139600a6002018054611d6990614a0b565b80601f0160208091040260200160405190810160405280929190818152602001828054611d9590614a0b565b8015611de25780601f10611db757610100808354040283529160200191611de2565b820191906000526020600020905b815481529060010190602001808311611dc557829003601f168201915b5050505050836004015461302d565b7f838ab28464562786a6c4ab2311964b82fa60bd9b14aa7e856af1f3f18d41a414600a600301548260040154604051611e2b929190614734565b60405180910390a15050565b6000600560008473ffffffffffffffffffffffffffffffffffffffff1673ffffffffffffffffffffffffffffffffffffffff16815260200190815260200160002060008373ffffffffffffffffffffffffffffffffffffffff1673ffffffffffffffffffffffffffffffffffffffff16815260200190815260200160002060009054906101000a900460ff16905092915050565b6000611ed760066130cc565b9050611ee333826130da565b6040518060e0016040528083815260200160078481548110611f2e577f4e487b7100000000000000000000000000000000000000000000000000000000600052603260045260246000fd5b90600052602060002090600702016001018054611f4a90614a0b565b80601f0160208091040260200160405190810160405280929190818152602001828054611f7690614a0b565b8015611fc35780601f10611f9857610100808354040283529160200191611fc3565b820191906000526020600020905b815481529060010190602001808311611fa657829003601f168201915b5050505050815260200160078481548110612007577f4e487b7100000000000000000000000000000000000000000000000000000000600052603260045260246000fd5b9060005260206000209060070201600201805461202390614a0b565b80601f016020809104026020016040519081016040528092919081815260200182805461204f90614a0b565b801561209c5780601f106120715761010080835404028352916020019161209c565b820191906000526020600020905b81548152906001019060200180831161207f57829003601f168201915b50505050508152602001600784815481106120e0577f4e487b7100000000000000000000000000000000000000000000000000000000600052603260045260246000fd5b906000526020600020906007020160030180546120fc90614a0b565b80601f016020809104026020016040519081016040528092919081815260200182805461212890614a0b565b80156121755780601f1061214a57610100808354040283529160200191612175565b820191906000526020600020905b81548152906001019060200180831161215857829003601f168201915b50505050508152602001600784815481106121b9577f4e487b7100000000000000000000000000000000000000000000000000000000600052603260045260246000fd5b90600052602060002090600702016004015481526020016007848154811061220a577f4e487b7100000000000000000000000000000000000000000000000000000000600052603260045260246000fd5b90600052602060002090600702016005015481526020016007848154811061225b577f4e487b7100000000000000000000000000000000000000000000000000000000600052603260045260246000fd5b906000526020600020906007020160060154815250600860008381526020019081526020016000206000820151816000015560208201518160010190805190602001906122a992919061360b565b5060408201518160020190805190602001906122c692919061360b565b5060608201518160030190805190602001906122e392919061360b565b506080820151816004015560a0820151816005015560c082015181600601559050506123286040518060600160405280602d8152602001615355602d913982846130f8565b80600960003373ffffffffffffffffffffffffffffffffffffffff1673ffffffffffffffffffffffffffffffffffffffff1681526020019081526020016000208190555061237660066124f6565b7f4bc303fd457a97b4691b9af582ce71868a3d258638c8d4f8c60988a0f0bfb8cd3382846040516123a9939291906141e9565b60405180910390a15050565b612451848484846040516024016123cf9493929190614386565b6040516020818303038152906040527f8d142cdd000000000000000000000000000000000000000000000000000000007bffffffffffffffffffffffffffffffffffffffffffffffffffffffff19166020820180517bffffffffffffffffffffffffffffffffffffffffffffffffffffffff8381831617835250505050613197565b50505050565b6124f183838360405160240161246f9392919061427f565b6040516020818303038152906040527f2ced7cef000000000000000000000000000000000000000000000000000000007bffffffffffffffffffffffffffffffffffffffffffffffffffffffff19166020820180517bffffffffffffffffffffffffffffffffffffffffffffffffffffffff8381831617835250505050613197565b505050565b6001816000016000828254019250508190555050565b60007f01ffc9a7000000000000000000000000000000000000000000000000000000007bffffffffffffffffffffffffffffffffffffffffffffffffffffffff1916827bffffffffffffffffffffffffffffffffffffffffffffffffffffffff1916149050919050565b60008073ffffffffffffffffffffffffffffffffffffffff166002600084815260200190815260200160002060009054906101000a900473ffffffffffffffffffffffffffffffffffffffff1673ffffffffffffffffffffffffffffffffffffffff1614159050919050565b600033905090565b816004600083815260200190815260200160002060006101000a81548173ffffffffffffffffffffffffffffffffffffffff021916908373ffffffffffffffffffffffffffffffffffffffff160217905550808273ffffffffffffffffffffffffffffffffffffffff1661265d83610c09565b73ffffffffffffffffffffffffffffffffffffffff167f8c5be1e5ebec7d5bd14f71427d1e84f3dd0314c0f7b2291e5b200ac8c7c3b92560405160405180910390a45050565b60006126ae82612576565b6126ed576040517f08c379a00000000000000000000000000000000000000000000000000000000081526004016126e490614511565b60405180910390fd5b60006126f883610c09565b90508073ffffffffffffffffffffffffffffffffffffffff168473ffffffffffffffffffffffffffffffffffffffff16148061276757508373ffffffffffffffffffffffffffffffffffffffff1661274f846107a4565b73ffffffffffffffffffffffffffffffffffffffff16145b8061277857506127778185611e37565b5b91505092915050565b8273ffffffffffffffffffffffffffffffffffffffff166127a182610c09565b73ffffffffffffffffffffffffffffffffffffffff16146127f7576040517f08c379a00000000000000000000000000000000000000000000000000000000081526004016127ee906145f1565b60405180910390fd5b600073ffffffffffffffffffffffffffffffffffffffff168273ffffffffffffffffffffffffffffffffffffffff161415612867576040517f08c379a000000000000000000000000000000000000000000000000000000000815260040161285e906144d1565b60405180910390fd5b6128728383836131c0565b61287d6000826125ea565b6001600360008573ffffffffffffffffffffffffffffffffffffffff1673ffffffffffffffffffffffffffffffffffffffff16815260200190815260200160002060008282546128cd9190614921565b925050819055506001600360008473ffffffffffffffffffffffffffffffffffffffff1673ffffffffffffffffffffffffffffffffffffffff16815260200190815260200160002060008282546129249190614840565b92505081905550816002600083815260200190815260200160002060006101000a81548173ffffffffffffffffffffffffffffffffffffffff021916908373ffffffffffffffffffffffffffffffffffffffff160217905550808273ffffffffffffffffffffffffffffffffffffffff168473ffffffffffffffffffffffffffffffffffffffff167fddf252ad1be2c89b69c2b068fc378daa952ba7f163c4a11628f55a4df523b3ef60405160405180910390a4505050565b612a79848484846040516024016129f794939291906143e0565b6040516020818303038152906040527fd5cf17d0000000000000000000000000000000000000000000000000000000007bffffffffffffffffffffffffffffffffffffffffffffffffffffffff19166020820180517bffffffffffffffffffffffffffffffffffffffffffffffffffffffff8381831617835250505050613197565b50505050565b612b1581604051602401612a93919061425d565b6040516020818303038152906040527f41304fac000000000000000000000000000000000000000000000000000000007bffffffffffffffffffffffffffffffffffffffffffffffffffffffff19166020820180517bffffffffffffffffffffffffffffffffffffffffffffffffffffffff8381831617835250505050613197565b50565b8173ffffffffffffffffffffffffffffffffffffffff168373ffffffffffffffffffffffffffffffffffffffff161415612b87576040517f08c379a0000000000000000000000000000000000000000000000000000000008152600401612b7e906144f1565b60405180910390fd5b80600560008573ffffffffffffffffffffffffffffffffffffffff1673ffffffffffffffffffffffffffffffffffffffff16815260200190815260200160002060008473ffffffffffffffffffffffffffffffffffffffff1673ffffffffffffffffffffffffffffffffffffffff16815260200190815260200160002060006101000a81548160ff0219169083151502179055508173ffffffffffffffffffffffffffffffffffffffff168373ffffffffffffffffffffffffffffffffffffffff167f17307eab39ab6107e8899845ad3d59bd9653f200f220920489ca2b5937696c3183604051612c789190614242565b60405180910390a3505050565b612c90848484612781565b612c9c848484846131c5565b612cdb576040517f08c379a0000000000000000000000000000000000000000000000000000000008152600401612cd290614471565b60405180910390fd5b50505050565b60606000821415612d29576040518060400160405280600181526020017f30000000000000000000000000000000000000000000000000000000000000008152509050612e89565b600082905060005b60008214612d5b578080612d4490614a6e565b915050600a82612d549190614896565b9150612d31565b60008167ffffffffffffffff811115612d9d577f4e487b7100000000000000000000000000000000000000000000000000000000600052604160045260246000fd5b6040519080825280601f01601f191660200182016040528015612dcf5781602001600182028036833780820191505090505b5090505b60008514612e8257600182612de89190614921565b9150600a85612df79190614ab7565b6030612e039190614840565b60f81b818381518110612e3f577f4e487b7100000000000000000000000000000000000000000000000000000000600052603260045260246000fd5b60200101907effffffffffffffffffffffffffffffffffffffffffffffffffffffffffffff1916908160001a905350600a85612e7b9190614896565b9450612dd3565b8093505050505b919050565b6060600082511415612eb157604051806020016040528060008152509050613028565b60006040518060600160405280604081526020016153156040913990506000600360028551612ee09190614840565b612eea9190614896565b6004612ef691906148c7565b90506000602082612f079190614840565b67ffffffffffffffff811115612f46577f4e487b7100000000000000000000000000000000000000000000000000000000600052604160045260246000fd5b6040519080825280601f01601f191660200182016040528015612f785781602001600182028036833780820191505090505b509050818152600183018586518101602084015b81831015612fe7576003830192508251603f8160121c168501518253600182019150603f81600c1c168501518253600182019150603f8160061c168501518253600182019150603f8116850151825360018201915050612f8c565b60038951066001811461300157600281146130115761301c565b613d3d60f01b600283035261301c565b603d60f81b60018303525b50505050508093505050505b919050565b6130c783838360405160240161304593929190614341565b6040516020818303038152906040527ff362ca59000000000000000000000000000000000000000000000000000000007bffffffffffffffffffffffffffffffffffffffffffffffffffffffff19166020820180517bffffffffffffffffffffffffffffffffffffffffffffffffffffffff8381831617835250505050613197565b505050565b600081600001549050919050565b6130f482826040518060200160405280600081525061335c565b5050565b61319283838360405160240161311093929190614433565b6040516020818303038152906040527f969cdd03000000000000000000000000000000000000000000000000000000007bffffffffffffffffffffffffffffffffffffffffffffffffffffffff19166020820180517bffffffffffffffffffffffffffffffffffffffffffffffffffffffff8381831617835250505050613197565b505050565b60008151905060006a636f6e736f6c652e6c6f679050602083016000808483855afa5050505050565b505050565b60006131e68473ffffffffffffffffffffffffffffffffffffffff166133b7565b1561334f578373ffffffffffffffffffffffffffffffffffffffff1663150b7a0261320f6125e2565b8786866040518563ffffffff1660e01b8152600401613231949392919061419d565b602060405180830381600087803b15801561324b57600080fd5b505af192505050801561327c57506040513d601f19601f82011682018060405250810190613279919061394f565b60015b6132ff573d80600081146132ac576040519150601f19603f3d011682016040523d82523d6000602084013e6132b1565b606091505b506000815114156132f7576040517f08c379a00000000000000000000000000000000000000000000000000000000081526004016132ee90614471565b60405180910390fd5b805181602001fd5b63150b7a0260e01b7bffffffffffffffffffffffffffffffffffffffffffffffffffffffff1916817bffffffffffffffffffffffffffffffffffffffffffffffffffffffff191614915050613354565b600190505b949350505050565b61336683836133ca565b61337360008484846131c5565b6133b2576040517f08c379a00000000000000000000000000000000000000000000000000000000081526004016133a990614471565b60405180910390fd5b505050565b600080823b905060008111915050919050565b600073ffffffffffffffffffffffffffffffffffffffff168273ffffffffffffffffffffffffffffffffffffffff16141561343a576040517f08c379a0000000000000000000000000000000000000000000000000000000008152600401613431906145b1565b60405180910390fd5b61344381612576565b15613483576040517f08c379a000000000000000000000000000000000000000000000000000000000815260040161347a906144b1565b60405180910390fd5b61348f600083836131c0565b6001600360008473ffffffffffffffffffffffffffffffffffffffff1673ffffffffffffffffffffffffffffffffffffffff16815260200190815260200160002060008282546134df9190614840565b92505081905550816002600083815260200190815260200160002060006101000a81548173ffffffffffffffffffffffffffffffffffffffff021916908373ffffffffffffffffffffffffffffffffffffffff160217905550808273ffffffffffffffffffffffffffffffffffffffff16600073ffffffffffffffffffffffffffffffffffffffff167fddf252ad1be2c89b69c2b068fc378daa952ba7f163c4a11628f55a4df523b3ef60405160405180910390a45050565b6040518060c001604052806060815260200160608152602001606081526020016000815260200160008152602001600081525090565b6040518060e00160405280600081526020016060815260200160608152602001606081526020016000815260200160008152602001600081525090565b82805461361790614a0b565b90600052602060002090601f0160209004810192826136395760008555613680565b82601f1061365257805160ff1916838001178555613680565b82800160010185558215613680579182015b8281111561367f578251825591602001919060010190613664565b5b50905061368d9190613691565b5090565b5b808211156136aa576000816000905550600101613692565b5090565b60006136c16136bc84614782565b61475d565b9050828152602081018484840111156136d957600080fd5b6136e48482856149c9565b509392505050565b6000813590506136fb81615288565b92915050565b6000813590506137108161529f565b92915050565b600081359050613725816152b6565b92915050565b60008151905061373a816152b6565b92915050565b600082601f83011261375157600080fd5b81356137618482602086016136ae565b91505092915050565b600081359050613779816152cd565b92915050565b60006020828403121561379157600080fd5b600061379f848285016136ec565b91505092915050565b600080604083850312156137bb57600080fd5b60006137c9858286016136ec565b92505060206137da858286016136ec565b9150509250929050565b6000806000606084860312156137f957600080fd5b6000613807868287016136ec565b9350506020613818868287016136ec565b92505060406138298682870161376a565b9150509250925092565b6000806000806080858703121561384957600080fd5b6000613857878288016136ec565b9450506020613868878288016136ec565b93505060406138798782880161376a565b925050606085013567ffffffffffffffff81111561389657600080fd5b6138a287828801613740565b91505092959194509250565b600080604083850312156138c157600080fd5b60006138cf858286016136ec565b92505060206138e085828601613701565b9150509250929050565b600080604083850312156138fd57600080fd5b600061390b858286016136ec565b925050602061391c8582860161376a565b9150509250929050565b60006020828403121561393857600080fd5b600061394684828501613716565b91505092915050565b60006020828403121561396157600080fd5b600061396f8482850161372b565b91505092915050565b60006020828403121561398a57600080fd5b60006139988482850161376a565b91505092915050565b60006139ad8383613f26565b905092915050565b6139be81614955565b82525050565b60006139cf826147c3565b6139d981856147f1565b9350836020820285016139eb856147b3565b8060005b85811015613a275784840389528151613a0885826139a1565b9450613a13836147e4565b925060208a019950506001810190506139ef565b50829750879550505050505092915050565b613a4281614967565b82525050565b6000613a53826147ce565b613a5d8185614802565b9350613a6d8185602086016149d8565b613a7681614ba4565b840191505092915050565b6000613a8c826147d9565b613a968185614813565b9350613aa68185602086016149d8565b613aaf81614ba4565b840191505092915050565b6000613ac5826147d9565b613acf8185614824565b9350613adf8185602086016149d8565b613ae881614ba4565b840191505092915050565b6000613afe826147d9565b613b088185614835565b9350613b188185602086016149d8565b80840191505092915050565b6000613b31600b83614835565b9150613b3c82614bb5565b600b82019050919050565b6000613b54603283614824565b9150613b5f82614bde565b604082019050919050565b6000613b77606283614835565b9150613b8282614c2d565b606282019050919050565b6000613b9a602883614824565b9150613ba582614cc8565b604082019050919050565b6000613bbd601c83614824565b9150613bc882614d17565b602082019050919050565b6000613be0600e83614835565b9150613beb82614d40565b600e82019050919050565b6000613c03602483614824565b9150613c0e82614d69565b604082019050919050565b6000613c26601983614824565b9150613c3182614db8565b602082019050919050565b6000613c49602c83614824565b9150613c5482614de1565b604082019050919050565b6000613c6c603883614824565b9150613c7782614e30565b604082019050919050565b6000613c8f600183614835565b9150613c9a82614e7f565b600182019050919050565b6000613cb2602a83614824565b9150613cbd82614ea8565b604082019050919050565b6000613cd5602983614824565b9150613ce082614ef7565b604082019050919050565b6000613cf8602d83614824565b9150613d0382614f46565b604082019050919050565b6000613d1b600483614835565b9150613d2682614f95565b600482019050919050565b6000613d3e602083614824565b9150613d4982614fbe565b602082019050919050565b6000613d61602c83614824565b9150613d6c82614fe7565b604082019050919050565b6000613d84602983614824565b9150613d8f82615036565b604082019050919050565b6000613da7600a83614835565b9150613db282615085565b600a82019050919050565b6000613dca602183614824565b9150613dd5826150ae565b604082019050919050565b6000613ded604283614835565b9150613df8826150fd565b604282019050919050565b6000613e10601d83614835565b9150613e1b82615172565b601d82019050919050565b6000613e33603183614824565b9150613e3e8261519b565b604082019050919050565b6000613e56602d83614835565b9150613e61826151ea565b602d82019050919050565b6000613e79602c83614835565b9150613e8482615239565b602c82019050919050565b600060c0830160008301518482036000860152613eac8282613a81565b91505060208301518482036020860152613ec68282613a81565b91505060408301518482036040860152613ee08282613a81565b9150506060830151613ef5606086018261407a565b506080830151613f08608086018261407a565b5060a0830151613f1b60a086018261407a565b508091505092915050565b600060e083016000830151613f3e600086018261407a565b5060208301518482036020860152613f568282613a81565b91505060408301518482036040860152613f708282613a81565b91505060608301518482036060860152613f8a8282613a81565b9150506080830151613f9f608086018261407a565b5060a0830151613fb260a086018261407a565b5060c0830151613fc560c086018261407a565b508091505092915050565b600060e083016000830151613fe8600086018261407a565b50602083015184820360208601526140008282613a81565b9150506040830151848203604086015261401a8282613a81565b915050606083015184820360608601526140348282613a81565b9150506080830151614049608086018261407a565b5060a083015161405c60a086018261407a565b5060c083015161406f60c086018261407a565b508091505092915050565b614083816149bf565b82525050565b614092816149bf565b82525050565b60006140a382613d9a565b91506140af828a613af3565b91506140ba82613b24565b91506140c68289613af3565b91506140d182613b6a565b91506140dd8288613af3565b91506140e882613de0565b91506140f48287613af3565b91506140ff82613c82565b915061410a82613e6c565b91506141168286613af3565b915061412182613bd3565b915061412d8285613af3565b915061413882613e49565b91506141448284613af3565b915061414f82613d0e565b915081905098975050505050505050565b600061416b82613e03565b91506141778284613af3565b915081905092915050565b600060208201905061419760008301846139b5565b92915050565b60006080820190506141b260008301876139b5565b6141bf60208301866139b5565b6141cc6040830185614089565b81810360608301526141de8184613a48565b905095945050505050565b60006060820190506141fe60008301866139b5565b61420b6020830185614089565b6142186040830184614089565b949350505050565b6000602082019050818103600083015261423a81846139c4565b905092915050565b60006020820190506142576000830184613a39565b92915050565b600060208201905081810360008301526142778184613aba565b905092915050565b600060608201905081810360008301526142998186613aba565b905081810360208301526142ad8185613aba565b905081810360408301526142c18184613aba565b9050949350505050565b600060c08201905081810360008301526142e58189613aba565b905081810360208301526142f98188613aba565b9050818103604083015261430d8187613aba565b905061431c6060830186614089565b6143296080830185614089565b61433660a0830184614089565b979650505050505050565b6000606082019050818103600083015261435b8186613aba565b9050818103602083015261436f8185613aba565b905061437e6040830184614089565b949350505050565b600060808201905081810360008301526143a08187613aba565b905081810360208301526143b48186613aba565b90506143c36040830185614089565b81810360608301526143d58184613aba565b905095945050505050565b600060808201905081810360008301526143fa8187613aba565b9050818103602083015261440e8186613aba565b905061441d6040830185614089565b61442a6060830184614089565b95945050505050565b6000606082019050818103600083015261444d8186613aba565b905061445c6020830185614089565b6144696040830184614089565b949350505050565b6000602082019050818103600083015261448a81613b47565b9050919050565b600060208201905081810360008301526144aa81613b8d565b9050919050565b600060208201905081810360008301526144ca81613bb0565b9050919050565b600060208201905081810360008301526144ea81613bf6565b9050919050565b6000602082019050818103600083015261450a81613c19565b9050919050565b6000602082019050818103600083015261452a81613c3c565b9050919050565b6000602082019050818103600083015261454a81613c5f565b9050919050565b6000602082019050818103600083015261456a81613ca5565b9050919050565b6000602082019050818103600083015261458a81613cc8565b9050919050565b600060208201905081810360008301526145aa81613ceb565b9050919050565b600060208201905081810360008301526145ca81613d31565b9050919050565b600060208201905081810360008301526145ea81613d54565b9050919050565b6000602082019050818103600083015261460a81613d77565b9050919050565b6000602082019050818103600083015261462a81613dbd565b9050919050565b6000602082019050818103600083015261464a81613e26565b9050919050565b6000602082019050818103600083015261466b8184613e8f565b905092915050565b6000602082019050818103600083015261468d8184613fd0565b905092915050565b60006020820190506146aa6000830184614089565b92915050565b600060e0820190506146c5600083018a614089565b81810360208301526146d78189613aba565b905081810360408301526146eb8188613aba565b905081810360608301526146ff8187613aba565b905061470e6080830186614089565b61471b60a0830185614089565b61472860c0830184614089565b98975050505050505050565b60006040820190506147496000830185614089565b6147566020830184614089565b9392505050565b6000614767614778565b90506147738282614a3d565b919050565b6000604051905090565b600067ffffffffffffffff82111561479d5761479c614b75565b5b6147a682614ba4565b9050602081019050919050565b6000819050602082019050919050565b600081519050919050565b600081519050919050565b600081519050919050565b6000602082019050919050565b600082825260208201905092915050565b600082825260208201905092915050565b600082825260208201905092915050565b600082825260208201905092915050565b600081905092915050565b600061484b826149bf565b9150614856836149bf565b9250827fffffffffffffffffffffffffffffffffffffffffffffffffffffffffffffffff0382111561488b5761488a614ae8565b5b828201905092915050565b60006148a1826149bf565b91506148ac836149bf565b9250826148bc576148bb614b17565b5b828204905092915050565b60006148d2826149bf565b91506148dd836149bf565b9250817fffffffffffffffffffffffffffffffffffffffffffffffffffffffffffffffff048311821515161561491657614915614ae8565b5b828202905092915050565b600061492c826149bf565b9150614937836149bf565b92508282101561494a57614949614ae8565b5b828203905092915050565b60006149608261499f565b9050919050565b60008115159050919050565b60007fffffffff0000000000000000000000000000000000000000000000000000000082169050919050565b600073ffffffffffffffffffffffffffffffffffffffff82169050919050565b6000819050919050565b82818337600083830152505050565b60005b838110156149f65780820151818401526020810190506149db565b83811115614a05576000848401525b50505050565b60006002820490506001821680614a2357607f821691505b60208210811415614a3757614a36614b46565b5b50919050565b614a4682614ba4565b810181811067ffffffffffffffff82111715614a6557614a64614b75565b5b80604052505050565b6000614a79826149bf565b91507fffffffffffffffffffffffffffffffffffffffffffffffffffffffffffffffff821415614aac57614aab614ae8565b5b600182019050919050565b6000614ac2826149bf565b9150614acd836149bf565b925082614add57614adc614b17565b5b828206905092915050565b7f4e487b7100000000000000000000000000000000000000000000000000000000600052601160045260246000fd5b7f4e487b7100000000000000000000000000000000000000000000000000000000600052601260045260246000fd5b7f4e487b7100000000000000000000000000000000000000000000000000000000600052602260045260246000fd5b7f4e487b7100000000000000000000000000000000000000000000000000000000600052604160045260246000fd5b6000601f19601f8301169050919050565b7f202d2d204e465420233a20000000000000000000000000000000000000000000600082015250565b7f4552433732313a207472616e7366657220746f206e6f6e20455243373231526560008201527f63656976657220696d706c656d656e7465720000000000000000000000000000602082015250565b7f222c20226465736372697074696f6e223a20225468697320697320616e204e4660008201527f542074686174206c6574732070656f706c6520706c617920696e20746865206760208201527f616d6520537469636b6d616e20426174746c657321222c2022696d616765223a60408201527f2022000000000000000000000000000000000000000000000000000000000000606082015250565b7f4572726f723a20626f7373206d757374206861766520485020746f206174746160008201527f636b20626f73732e000000000000000000000000000000000000000000000000602082015250565b7f4552433732313a20746f6b656e20616c7265616479206d696e74656400000000600082015250565b7f2c20226d61785f76616c7565223a000000000000000000000000000000000000600082015250565b7f4552433732313a207472616e7366657220746f20746865207a65726f2061646460008201527f7265737300000000000000000000000000000000000000000000000000000000602082015250565b7f4552433732313a20617070726f766520746f2063616c6c657200000000000000600082015250565b7f4552433732313a206f70657261746f7220717565727920666f72206e6f6e657860008201527f697374656e7420746f6b656e0000000000000000000000000000000000000000602082015250565b7f4552433732313a20617070726f76652063616c6c6572206973206e6f74206f7760008201527f6e6572206e6f7220617070726f76656420666f7220616c6c0000000000000000602082015250565b7f2200000000000000000000000000000000000000000000000000000000000000600082015250565b7f4552433732313a2062616c616e636520717565727920666f7220746865207a6560008201527f726f206164647265737300000000000000000000000000000000000000000000602082015250565b7f4552433732313a206f776e657220717565727920666f72206e6f6e657869737460008201527f656e7420746f6b656e0000000000000000000000000000000000000000000000602082015250565b7f4572726f723a20636861726163746572206d757374206861766520485020746f60008201527f2061747461636b20626f73732e00000000000000000000000000000000000000602082015250565b7f7d205d7d00000000000000000000000000000000000000000000000000000000600082015250565b7f4552433732313a206d696e7420746f20746865207a65726f2061646472657373600082015250565b7f4552433732313a20617070726f76656420717565727920666f72206e6f6e657860008201527f697374656e7420746f6b656e0000000000000000000000000000000000000000602082015250565b7f4552433732313a207472616e73666572206f6620746f6b656e2074686174206960008201527f73206e6f74206f776e0000000000000000000000000000000000000000000000602082015250565b7f7b226e616d65223a202200000000000000000000000000000000000000000000600082015250565b7f4552433732313a20617070726f76616c20746f2063757272656e74206f776e6560008201527f7200000000000000000000000000000000000000000000000000000000000000602082015250565b7f222c202261747472696275746573223a205b207b202274726169745f7479706560008201527f223a202250726566657272656420576561706f6e222c202276616c756522203a60208201527f2022000000000000000000000000000000000000000000000000000000000000604082015250565b7f646174613a6170706c69636174696f6e2f6a736f6e3b6261736536342c000000600082015250565b7f4552433732313a207472616e736665722063616c6c6572206973206e6f74206f60008201527f776e6572206e6f7220617070726f766564000000000000000000000000000000602082015250565b7f7d2c207b202274726169745f74797065223a202241747461636b2044616d616760008201527f65222c202276616c7565223a2000000000000000000000000000000000000000602082015250565b7f7d2c207b2274726169745f74797065223a20224865616c746820506f696e747360008201527f222c202276616c756522203a0000000000000000000000000000000000000000602082015250565b61529181614955565b811461529c57600080fd5b50565b6152a881614967565b81146152b357600080fd5b50565b6152bf81614973565b81146152ca57600080fd5b50565b6152d6816149bf565b81146152e157600080fd5b5056fe426f73732061747461636b656420706c6179657220776974682025732e204e657720706c617965722068703a2025730a4142434445464748494a4b4c4d4e4f505152535455565758595a6162636465666768696a6b6c6d6e6f707172737475767778797a303132333435363738392b2f4d696e746564204e465420772f746f6b656e496420257320616e6420636861726163746572496e6465782025730a506c6179657220772f6368617261637465722025732061626f757420746f2061747461636b2e2048617320257320485020616e64202573204144506c617965722061747461636b656420626f737320776974682025732e204e657720626f73732068703a202573506c617965722063616e6e6f742061747461636b2c206865616c7468206973207a65726f2e205265766976696e672066697273742ea26469706673582212201bc5f9d855eeac20cc32ca25335cf2e847680b83d41d2b7a83d40303d7cb441264736f6c63430008040033446f6e6520696e697469616c697a696e67202573207769746820772f48502025732c20696d67202573446f6e6520696e697469616c697a696e6720626f737320257320772f48502025732c20696d67202573",
  "linkReferences": {},
  "deployedLinkReferences": {}
}