{
  "_format": "hh-sol-artifact-1",
  "contractName": "StickmanBattleGame",
  "sourceName": "contracts/StickmanBattleGame.sol",
  "abi": [
    {
      "inputs": [
        {
          "internalType": "string[]",
          "name": "characterNames",
          "type": "string[]"
        },
        {
          "internalType": "string[]",
          "name": "characterImageURIs",
          "type": "string[]"
        },
        {
          "internalType": "string[]",
          "name": "characterWeapons",
          "type": "string[]"
        },
        {
          "internalType": "uint256[]",
          "name": "characterHp",
          "type": "uint256[]"
        },
        {
          "internalType": "uint256[]",
          "name": "characterAttackDmg",
          "type": "uint256[]"
        },
        {
          "internalType": "string",
          "name": "bossName",
          "type": "string"
        },
        {
          "internalType": "string",
          "name": "bossImageURI",
          "type": "string"
        },
        {
          "internalType": "string",
          "name": "bossWeapon",
          "type": "string"
        },
        {
          "internalType": "uint256",
          "name": "bossHp",
          "type": "uint256"
        },
        {
          "internalType": "uint256",
          "name": "bossAttackDamage",
          "type": "uint256"
        }
      ],
      "stateMutability": "nonpayable",
      "type": "constructor"
    },
    {
      "anonymous": false,
      "inputs": [
        {
          "indexed": true,
          "internalType": "address",
          "name": "owner",
          "type": "address"
        },
        {
          "indexed": true,
          "internalType": "address",
          "name": "approved",
          "type": "address"
        },
        {
          "indexed": true,
          "internalType": "uint256",
          "name": "tokenId",
          "type": "uint256"
        }
      ],
      "name": "Approval",
      "type": "event"
    },
    {
      "anonymous": false,
      "inputs": [
        {
          "indexed": true,
          "internalType": "address",
          "name": "owner",
          "type": "address"
        },
        {
          "indexed": true,
          "internalType": "address",
          "name": "operator",
          "type": "address"
        },
        {
          "indexed": false,
          "internalType": "bool",
          "name": "approved",
          "type": "bool"
        }
      ],
      "name": "ApprovalForAll",
      "type": "event"
    },
    {
      "anonymous": false,
      "inputs": [
        {
          "indexed": false,
          "internalType": "uint256",
          "name": "newBossHp",
          "type": "uint256"
        },
        {
          "indexed": false,
          "internalType": "uint256",
          "name": "newPlayerHp",
          "type": "uint256"
        }
      ],
      "name": "AttackComplete",
      "type": "event"
    },
    {
      "anonymous": false,
      "inputs": [
        {
          "indexed": false,
          "internalType": "address",
          "name": "sender",
          "type": "address"
        },
        {
          "indexed": false,
          "internalType": "uint256",
          "name": "tokenId",
          "type": "uint256"
        },
        {
          "indexed": false,
          "internalType": "uint256",
          "name": "characterIndex",
          "type": "uint256"
        }
      ],
      "name": "CharacterNFTMinted",
      "type": "event"
    },
    {
      "anonymous": false,
      "inputs": [
        {
          "indexed": false,
          "internalType": "uint256",
          "name": "newPlayerHp",
          "type": "uint256"
        }
      ],
      "name": "ReviveComplete",
      "type": "event"
    },
    {
      "anonymous": false,
      "inputs": [
        {
          "indexed": true,
          "internalType": "address",
          "name": "from",
          "type": "address"
        },
        {
          "indexed": true,
          "internalType": "address",
          "name": "to",
          "type": "address"
        },
        {
          "indexed": true,
          "internalType": "uint256",
          "name": "tokenId",
          "type": "uint256"
        }
      ],
      "name": "Transfer",
      "type": "event"
    },
    {
      "inputs": [
        {
          "internalType": "address",
          "name": "to",
          "type": "address"
        },
        {
          "internalType": "uint256",
          "name": "tokenId",
          "type": "uint256"
        }
      ],
      "name": "approve",
      "outputs": [],
      "stateMutability": "nonpayable",
      "type": "function"
    },
    {
      "inputs": [],
      "name": "attackBoss",
      "outputs": [],
      "stateMutability": "nonpayable",
      "type": "function"
    },
    {
      "inputs": [
        {
          "internalType": "address",
          "name": "owner",
          "type": "address"
        }
      ],
      "name": "balanceOf",
      "outputs": [
        {
          "internalType": "uint256",
          "name": "",
          "type": "uint256"
        }
      ],
      "stateMutability": "view",
      "type": "function"
    },
    {
      "inputs": [],
      "name": "bigBoss",
      "outputs": [
        {
          "internalType": "string",
          "name": "name",
          "type": "string"
        },
        {
          "internalType": "string",
          "name": "imageURI",
          "type": "string"
        },
        {
          "internalType": "string",
          "name": "weapon",
          "type": "string"
        },
        {
          "internalType": "uint256",
          "name": "hp",
          "type": "uint256"
        },
        {
          "internalType": "uint256",
          "name": "maxHp",
          "type": "uint256"
        },
        {
          "internalType": "uint256",
          "name": "attackDamage",
          "type": "uint256"
        }
      ],
      "stateMutability": "view",
      "type": "function"
    },
    {
      "inputs": [],
      "name": "checkIfUserHasNFT",
      "outputs": [
        {
          "components": [
            {
              "internalType": "uint256",
              "name": "characterIndex",
              "type": "uint256"
            },
            {
              "internalType": "string",
              "name": "name",
              "type": "string"
            },
            {
              "internalType": "string",
              "name": "imageURI",
              "type": "string"
            },
            {
              "internalType": "string",
              "name": "weapon",
              "type": "string"
            },
            {
              "internalType": "uint256",
              "name": "hp",
              "type": "uint256"
            },
            {
              "internalType": "uint256",
              "name": "maxHp",
              "type": "uint256"
            },
            {
              "internalType": "uint256",
              "name": "attackDamage",
              "type": "uint256"
            }
          ],
          "internalType": "struct StickmanBattleGame.CharacterAttributes",
          "name": "",
          "type": "tuple"
        }
      ],
      "stateMutability": "view",
      "type": "function"
    },
    {
      "inputs": [],
      "name": "getAllDefaultCharacters",
      "outputs": [
        {
          "components": [
            {
              "internalType": "uint256",
              "name": "characterIndex",
              "type": "uint256"
            },
            {
              "internalType": "string",
              "name": "name",
              "type": "string"
            },
            {
              "internalType": "string",
              "name": "imageURI",
              "type": "string"
            },
            {
              "internalType": "string",
              "name": "weapon",
              "type": "string"
            },
            {
              "internalType": "uint256",
              "name": "hp",
              "type": "uint256"
            },
            {
              "internalType": "uint256",
              "name": "maxHp",
              "type": "uint256"
            },
            {
              "internalType": "uint256",
              "name": "attackDamage",
              "type": "uint256"
            }
          ],
          "internalType": "struct StickmanBattleGame.CharacterAttributes[]",
          "name": "",
          "type": "tuple[]"
        }
      ],
      "stateMutability": "view",
      "type": "function"
    },
    {
      "inputs": [
        {
          "internalType": "uint256",
          "name": "tokenId",
          "type": "uint256"
        }
      ],
      "name": "getApproved",
      "outputs": [
        {
          "internalType": "address",
          "name": "",
          "type": "address"
        }
      ],
      "stateMutability": "view",
      "type": "function"
    },
    {
      "inputs": [],
      "name": "getBigBoss",
      "outputs": [
        {
          "components": [
            {
              "internalType": "string",
              "name": "name",
              "type": "string"
            },
            {
              "internalType": "string",
              "name": "imageURI",
              "type": "string"
            },
            {
              "internalType": "string",
              "name": "weapon",
              "type": "string"
            },
            {
              "internalType": "uint256",
              "name": "hp",
              "type": "uint256"
            },
            {
              "internalType": "uint256",
              "name": "maxHp",
              "type": "uint256"
            },
            {
              "internalType": "uint256",
              "name": "attackDamage",
              "type": "uint256"
            }
          ],
          "internalType": "struct StickmanBattleGame.BigBoss",
          "name": "",
          "type": "tuple"
        }
      ],
      "stateMutability": "view",
      "type": "function"
    },
    {
      "inputs": [
        {
          "internalType": "address",
          "name": "owner",
          "type": "address"
        },
        {
          "internalType": "address",
          "name": "operator",
          "type": "address"
        }
      ],
      "name": "isApprovedForAll",
      "outputs": [
        {
          "internalType": "bool",
          "name": "",
          "type": "bool"
        }
      ],
      "stateMutability": "view",
      "type": "function"
    },
    {
      "inputs": [
        {
          "internalType": "uint256",
          "name": "_characterIndex",
          "type": "uint256"
        }
      ],
      "name": "mintCharacterNFT",
      "outputs": [],
      "stateMutability": "nonpayable",
      "type": "function"
    },
    {
      "inputs": [],
      "name": "name",
      "outputs": [
        {
          "internalType": "string",
          "name": "",
          "type": "string"
        }
      ],
      "stateMutability": "view",
      "type": "function"
    },
    {
      "inputs": [
        {
          "internalType": "uint256",
          "name": "",
          "type": "uint256"
        }
      ],
      "name": "nftHolderAttributes",
      "outputs": [
        {
          "internalType": "uint256",
          "name": "characterIndex",
          "type": "uint256"
        },
        {
          "internalType": "string",
          "name": "name",
          "type": "string"
        },
        {
          "internalType": "string",
          "name": "imageURI",
          "type": "string"
        },
        {
          "internalType": "string",
          "name": "weapon",
          "type": "string"
        },
        {
          "internalType": "uint256",
          "name": "hp",
          "type": "uint256"
        },
        {
          "internalType": "uint256",
          "name": "maxHp",
          "type": "uint256"
        },
        {
          "internalType": "uint256",
          "name": "attackDamage",
          "type": "uint256"
        }
      ],
      "stateMutability": "view",
      "type": "function"
    },
    {
      "inputs": [
        {
          "internalType": "address",
          "name": "",
          "type": "address"
        }
      ],
      "name": "nftHolders",
      "outputs": [
        {
          "internalType": "uint256",
          "name": "",
          "type": "uint256"
        }
      ],
      "stateMutability": "view",
      "type": "function"
    },
    {
      "inputs": [
        {
          "internalType": "uint256",
          "name": "tokenId",
          "type": "uint256"
        }
      ],
      "name": "ownerOf",
      "outputs": [
        {
          "internalType": "address",
          "name": "",
          "type": "address"
        }
      ],
      "stateMutability": "view",
      "type": "function"
    },
    {
      "inputs": [],
      "name": "revivePlayer",
      "outputs": [],
      "stateMutability": "nonpayable",
      "type": "function"
    },
    {
      "inputs": [
        {
          "internalType": "address",
          "name": "from",
          "type": "address"
        },
        {
          "internalType": "address",
          "name": "to",
          "type": "address"
        },
        {
          "internalType": "uint256",
          "name": "tokenId",
          "type": "uint256"
        }
      ],
      "name": "safeTransferFrom",
      "outputs": [],
      "stateMutability": "nonpayable",
      "type": "function"
    },
    {
      "inputs": [
        {
          "internalType": "address",
          "name": "from",
          "type": "address"
        },
        {
          "internalType": "address",
          "name": "to",
          "type": "address"
        },
        {
          "internalType": "uint256",
          "name": "tokenId",
          "type": "uint256"
        },
        {
          "internalType": "bytes",
          "name": "_data",
          "type": "bytes"
        }
      ],
      "name": "safeTransferFrom",
      "outputs": [],
      "stateMutability": "nonpayable",
      "type": "function"
    },
    {
      "inputs": [
        {
          "internalType": "address",
          "name": "operator",
          "type": "address"
        },
        {
          "internalType": "bool",
          "name": "approved",
          "type": "bool"
        }
      ],
      "name": "setApprovalForAll",
      "outputs": [],
      "stateMutability": "nonpayable",
      "type": "function"
    },
    {
      "inputs": [
        {
          "internalType": "bytes4",
          "name": "interfaceId",
          "type": "bytes4"
        }
      ],
      "name": "supportsInterface",
      "outputs": [
        {
          "internalType": "bool",
          "name": "",
          "type": "bool"
        }
      ],
      "stateMutability": "view",
      "type": "function"
    },
    {
      "inputs": [],
      "name": "symbol",
      "outputs": [
        {
          "internalType": "string",
          "name": "",
          "type": "string"
        }
      ],
      "stateMutability": "view",
      "type": "function"
    },
    {
      "inputs": [
        {
          "internalType": "uint256",
          "name": "_tokenId",
          "type": "uint256"
        }
      ],
      "name": "tokenURI",
      "outputs": [
        {
          "internalType": "string",
          "name": "",
          "type": "string"
        }
      ],
      "stateMutability": "view",
      "type": "function"
    },
    {
      "inputs": [
        {
          "internalType": "address",
          "name": "from",
          "type": "address"
        },
        {
          "internalType": "address",
          "name": "to",
          "type": "address"
        },
        {
          "internalType": "uint256",
          "name": "tokenId",
          "type": "uint256"
        }
      ],
      "name": "transferFrom",
      "outputs": [],
      "stateMutability": "nonpayable",
      "type": "function"
    }
  ],
  "bytecode": "0x60806040523480156200001157600080fd5b506040516200686a3803806200686a833981810160405281019062000037919062000e21565b6040518060400160405280601281526020017f537469636b6d616e426174746c6547616d6500000000000000000000000000008152506040518060400160405280600481526020017f534d4247000000000000000000000000000000000000000000000000000000008152508160009080519060200190620000bb92919062000b89565b508060019080519060200190620000d492919062000b89565b5050506040518060c0016040528086815260200185815260200184815260200183815260200183815260200182815250600a60008201518160000190805190602001906200012492919062000b89565b5060208201518160010190805190602001906200014392919062000b89565b5060408201518160020190805190602001906200016292919062000b89565b50606082015181600301556080820151816004015560a08201518160050155905050620002e56040518060600160405280602981526020016200684160299139600a6000018054620001b49062001255565b80601f0160208091040260200160405190810160405280929190818152602001828054620001e29062001255565b8015620002335780601f10620002075761010080835404028352916020019162000233565b820191906000526020600020905b8154815290600101906020018083116200021557829003601f168201915b5050505050600a60030154600a6001018054620002509062001255565b80601f01602080910402602001604051908101604052809291908181526020018280546200027e9062001255565b8015620002cf5780601f10620002a357610100808354040283529160200191620002cf565b820191906000526020600020905b815481529060010190602001808311620002b157829003601f168201915b5050505050620009f560201b620023f01760201c565b6200045c6040518060400160405280601481526020017f25732069732061726d656420776974683a202573000000000000000000000000815250600a6000018054620003319062001255565b80601f01602080910402602001604051908101604052809291908181526020018280546200035f9062001255565b8015620003b05780601f106200038457610100808354040283529160200191620003b0565b820191906000526020600020905b8154815290600101906020018083116200039257829003601f168201915b5050505050600a6002018054620003c79062001255565b80601f0160208091040260200160405190810160405280929190818152602001828054620003f59062001255565b8015620004465780601f106200041a5761010080835404028352916020019162000446565b820191906000526020600020905b8154815290600101906020018083116200042857829003601f168201915b505050505062000aa160201b620024921760201c565b60005b8a51811015620009cd5760076040518060e001604052808381526020018d8481518110620004b6577f4e487b7100000000000000000000000000000000000000000000000000000000600052603260045260246000fd5b602002602001015181526020018c8481518110620004fd577f4e487b7100000000000000000000000000000000000000000000000000000000600052603260045260246000fd5b602002602001015181526020018b848151811062000544577f4e487b7100000000000000000000000000000000000000000000000000000000600052603260045260246000fd5b602002602001015181526020018a84815181106200058b577f4e487b7100000000000000000000000000000000000000000000000000000000600052603260045260246000fd5b602002602001015181526020018a8481518110620005d2577f4e487b7100000000000000000000000000000000000000000000000000000000600052603260045260246000fd5b6020026020010151815260200189848151811062000619577f4e487b7100000000000000000000000000000000000000000000000000000000600052603260045260246000fd5b602002602001015181525090806001815401808255809150506001900390600052602060002090600702016000909190919091506000820151816000015560208201518160010190805190602001906200067592919062000b89565b5060408201518160020190805190602001906200069492919062000b89565b506060820151816003019080519060200190620006b392919062000b89565b506080820151816004015560a0820151816005015560c08201518160060155505060006007828154811062000711577f4e487b7100000000000000000000000000000000000000000000000000000000600052603260045260246000fd5b90600052602060002090600702016040518060e001604052908160008201548152602001600182018054620007469062001255565b80601f0160208091040260200160405190810160405280929190818152602001828054620007749062001255565b8015620007c55780601f106200079957610100808354040283529160200191620007c5565b820191906000526020600020905b815481529060010190602001808311620007a757829003601f168201915b50505050508152602001600282018054620007e09062001255565b80601f01602080910402602001604051908101604052809291908181526020018280546200080e9062001255565b80156200085f5780601f1062000833576101008083540402835291602001916200085f565b820191906000526020600020905b8154815290600101906020018083116200084157829003601f168201915b505050505081526020016003820180546200087a9062001255565b80601f0160208091040260200160405190810160405280929190818152602001828054620008a89062001255565b8015620008f95780601f10620008cd57610100808354040283529160200191620008f9565b820191906000526020600020905b815481529060010190602001808311620008db57829003601f168201915b5050505050815260200160048201548152602001600582015481526020016006820154815250509050620009606040518060600160405280602981526020016200681860299139826020015183608001518460400151620009f560201b620023f01760201c565b620009b56040518060400160405280601b81526020017f25732069732061726d6564207769746820776561706f6e3a20257300000000008152508260200151836060015162000aa160201b620024921760201c565b50600181620009c59190620011b8565b90506200045f565b50620009e5600662000b4a60201b620025311760201c565b5050505050505050505062001379565b62000a9b8484848460405160240162000a1294939291906200107d565b6040516020818303038152906040527f8d142cdd000000000000000000000000000000000000000000000000000000007bffffffffffffffffffffffffffffffffffffffffffffffffffffffff19166020820180517bffffffffffffffffffffffffffffffffffffffffffffffffffffffff838183161783525050505062000b6060201b60201c565b50505050565b62000b4583838360405160240162000abc939291906200102b565b6040516020818303038152906040527f2ced7cef000000000000000000000000000000000000000000000000000000007bffffffffffffffffffffffffffffffffffffffffffffffffffffffff19166020820180517bffffffffffffffffffffffffffffffffffffffffffffffffffffffff838183161783525050505062000b6060201b60201c565b505050565b6001816000016000828254019250508190555050565b60008151905060006a636f6e736f6c652e6c6f679050602083016000808483855afa5050505050565b82805462000b979062001255565b90600052602060002090601f01602090048101928262000bbb576000855562000c07565b82601f1062000bd657805160ff191683800117855562000c07565b8280016001018555821562000c07579182015b8281111562000c0657825182559160200191906001019062000be9565b5b50905062000c16919062000c1a565b5090565b5b8082111562000c3557600081600090555060010162000c1b565b5090565b600062000c5062000c4a8462001108565b620010df565b9050808382526020820190508285602086028201111562000c7057600080fd5b60005b8581101562000cbf57815167ffffffffffffffff81111562000c9457600080fd5b80860162000ca3898262000ddd565b8552602085019450602084019350505060018101905062000c73565b5050509392505050565b600062000ce062000cda8462001137565b620010df565b9050808382526020820190508285602086028201111562000d0057600080fd5b60005b8581101562000d34578162000d19888262000e0a565b84526020840193506020830192505060018101905062000d03565b5050509392505050565b600062000d5562000d4f8462001166565b620010df565b90508281526020810184848401111562000d6e57600080fd5b62000d7b8482856200121f565b509392505050565b600082601f83011262000d9557600080fd5b815162000da784826020860162000c39565b91505092915050565b600082601f83011262000dc257600080fd5b815162000dd484826020860162000cc9565b91505092915050565b600082601f83011262000def57600080fd5b815162000e0184826020860162000d3e565b91505092915050565b60008151905062000e1b816200135f565b92915050565b6000806000806000806000806000806101408b8d03121562000e4257600080fd5b60008b015167ffffffffffffffff81111562000e5d57600080fd5b62000e6b8d828e0162000d83565b9a505060208b015167ffffffffffffffff81111562000e8957600080fd5b62000e978d828e0162000d83565b99505060408b015167ffffffffffffffff81111562000eb557600080fd5b62000ec38d828e0162000d83565b98505060608b015167ffffffffffffffff81111562000ee157600080fd5b62000eef8d828e0162000db0565b97505060808b015167ffffffffffffffff81111562000f0d57600080fd5b62000f1b8d828e0162000db0565b96505060a08b015167ffffffffffffffff81111562000f3957600080fd5b62000f478d828e0162000ddd565b95505060c08b015167ffffffffffffffff81111562000f6557600080fd5b62000f738d828e0162000ddd565b94505060e08b015167ffffffffffffffff81111562000f9157600080fd5b62000f9f8d828e0162000ddd565b93505061010062000fb38d828e0162000e0a565b92505061012062000fc78d828e0162000e0a565b9150509295989b9194979a5092959850565b600062000fe6826200119c565b62000ff28185620011a7565b9350620010048185602086016200121f565b6200100f816200134e565b840191505092915050565b620010258162001215565b82525050565b6000606082019050818103600083015262001047818662000fd9565b905081810360208301526200105d818562000fd9565b9050818103604083015262001073818462000fd9565b9050949350505050565b6000608082019050818103600083015262001099818762000fd9565b90508181036020830152620010af818662000fd9565b9050620010c060408301856200101a565b8181036060830152620010d4818462000fd9565b905095945050505050565b6000620010eb620010fe565b9050620010f982826200128b565b919050565b6000604051905090565b600067ffffffffffffffff8211156200112657620011256200131f565b5b602082029050602081019050919050565b600067ffffffffffffffff8211156200115557620011546200131f565b5b602082029050602081019050919050565b600067ffffffffffffffff8211156200118457620011836200131f565b5b6200118f826200134e565b9050602081019050919050565b600081519050919050565b600082825260208201905092915050565b6000620011c58262001215565b9150620011d28362001215565b9250827fffffffffffffffffffffffffffffffffffffffffffffffffffffffffffffffff038211156200120a5762001209620012c1565b5b828201905092915050565b6000819050919050565b60005b838110156200123f57808201518184015260208101905062001222565b838111156200124f576000848401525b50505050565b600060028204905060018216806200126e57607f821691505b60208210811415620012855762001284620012f0565b5b50919050565b62001296826200134e565b810181811067ffffffffffffffff82111715620012b857620012b76200131f565b5b80604052505050565b7f4e487b7100000000000000000000000000000000000000000000000000000000600052601160045260246000fd5b7f4e487b7100000000000000000000000000000000000000000000000000000000600052602260045260246000fd5b7f4e487b7100000000000000000000000000000000000000000000000000000000600052604160045260246000fd5b6000601f19601f8301169050919050565b6200136a8162001215565b81146200137657600080fd5b50565b61548f80620013896000396000f3fe608060405234801561001057600080fd5b50600436106101425760003560e01c806395d89b41116100b8578063b953084e1161007c578063b953084e14610380578063c87b56dd1461039e578063c8cf27f4146103ce578063d4f24c5b146103ec578063e985e9c5146103f6578063f8b81ef71461042657610142565b806395d89b41146102d157806398da4c95146102ef578063a22cb46514610325578063a9c3267914610341578063b88d4fde1461036457610142565b806323b872dd1161010a57806323b872dd146101ff5780632a4c52db1461021b57806342842e0e146102255780636352211e1461024157806370a08231146102715780637df124a1146102a157610142565b806301ffc9a7146101475780630665f9611461017757806306fdde0314610195578063081812fc146101b3578063095ea7b3146101e3575b600080fd5b610161600480360381019061015c9190613961565b610442565b60405161016e919061427d565b60405180910390f35b61017f610524565b60405161018c919061468c565b60405180910390f35b61019d610712565b6040516101aa9190614298565b60405180910390f35b6101cd60048036038101906101c891906139b3565b6107a4565b6040516101da91906141bd565b60405180910390f35b6101fd60048036038101906101f89190613925565b610829565b005b6102196004803603810190610214919061381f565b610941565b005b6102236109a1565b005b61023f600480360381019061023a919061381f565b610c24565b005b61025b600480360381019061025691906139b3565b610c44565b60405161026891906141bd565b60405180910390f35b61028b600480360381019061028691906137ba565b610cf6565b60405161029891906146d0565b60405180910390f35b6102bb60048036038101906102b691906137ba565b610dae565b6040516102c891906146d0565b60405180910390f35b6102d9610dc6565b6040516102e69190614298565b60405180910390f35b610309600480360381019061030491906139b3565b610e58565b60405161031c97969594939291906146eb565b60405180910390f35b61033f600480360381019061033a91906138e9565b611032565b005b610349611048565b60405161035b96959493929190614306565b60405180910390f35b61037e6004803603810190610379919061386e565b61120a565b005b61038861126c565b604051610395919061425b565b60405180910390f35b6103b860048036038101906103b391906139b3565b6114a9565b6040516103c59190614298565b60405180910390f35b6103d6611762565b6040516103e391906146ae565b60405180910390f35b6103f46119cc565b005b610410600480360381019061040b91906137e3565b611e72565b60405161041d919061427d565b60405180910390f35b610440600480360381019061043b91906139b3565b611f06565b005b60007f80ac58cd000000000000000000000000000000000000000000000000000000007bffffffffffffffffffffffffffffffffffffffffffffffffffffffff1916827bffffffffffffffffffffffffffffffffffffffffffffffffffffffff1916148061050d57507f5b5e139f000000000000000000000000000000000000000000000000000000007bffffffffffffffffffffffffffffffffffffffffffffffffffffffff1916827bffffffffffffffffffffffffffffffffffffffffffffffffffffffff1916145b8061051d575061051c82612547565b5b9050919050565b61052c6135d3565b600a6040518060c001604052908160008201805461054990614a46565b80601f016020809104026020016040519081016040528092919081815260200182805461057590614a46565b80156105c25780601f10610597576101008083540402835291602001916105c2565b820191906000526020600020905b8154815290600101906020018083116105a557829003601f168201915b505050505081526020016001820180546105db90614a46565b80601f016020809104026020016040519081016040528092919081815260200182805461060790614a46565b80156106545780601f1061062957610100808354040283529160200191610654565b820191906000526020600020905b81548152906001019060200180831161063757829003601f168201915b5050505050815260200160028201805461066d90614a46565b80601f016020809104026020016040519081016040528092919081815260200182805461069990614a46565b80156106e65780601f106106bb576101008083540402835291602001916106e6565b820191906000526020600020905b8154815290600101906020018083116106c957829003601f168201915b505050505081526020016003820154815260200160048201548152602001600582015481525050905090565b60606000805461072190614a46565b80601f016020809104026020016040519081016040528092919081815260200182805461074d90614a46565b801561079a5780601f1061076f5761010080835404028352916020019161079a565b820191906000526020600020905b81548152906001019060200180831161077d57829003601f168201915b5050505050905090565b60006107af826125b1565b6107ee576040517f08c379a00000000000000000000000000000000000000000000000000000000081526004016107e59061460c565b60405180910390fd5b6004600083815260200190815260200160002060009054906101000a900473ffffffffffffffffffffffffffffffffffffffff169050919050565b600061083482610c44565b90508073ffffffffffffffffffffffffffffffffffffffff168373ffffffffffffffffffffffffffffffffffffffff1614156108a5576040517f08c379a000000000000000000000000000000000000000000000000000000000815260040161089c9061464c565b60405180910390fd5b8073ffffffffffffffffffffffffffffffffffffffff166108c461261d565b73ffffffffffffffffffffffffffffffffffffffff1614806108f357506108f2816108ed61261d565b611e72565b5b610932576040517f08c379a00000000000000000000000000000000000000000000000000000000081526004016109299061456c565b60405180910390fd5b61093c8383612625565b505050565b61095261094c61261d565b826126de565b610991576040517f08c379a00000000000000000000000000000000000000000000000000000000081526004016109889061466c565b60405180910390fd5b61099c8383836127bc565b505050565b6000600960003373ffffffffffffffffffffffffffffffffffffffff1673ffffffffffffffffffffffffffffffffffffffff1681526020019081526020016000205490506000600860008381526020019081526020016000209050610ab46040518060600160405280603b81526020016153bd603b9139826001018054610a2790614a46565b80601f0160208091040260200160405190810160405280929190818152602001828054610a5390614a46565b8015610aa05780601f10610a7557610100808354040283529160200191610aa0565b820191906000526020600020905b815481529060010190602001808311610a8357829003601f168201915b505050505083600401548460060154612a18565b6000816004015411610aef57610ae160405180606001604052806035815260200161542560359139612aba565b806005015481600401819055505b610b2d6040518060400160405280601781526020017f506c6179657220686173206265656e2072657669766564000000000000000000815250612aba565b610be56040518060600160405280603b81526020016153bd603b9139826001018054610b5890614a46565b80601f0160208091040260200160405190810160405280929190818152602001828054610b8490614a46565b8015610bd15780601f10610ba657610100808354040283529160200191610bd1565b820191906000526020600020905b815481529060010190602001808311610bb457829003601f168201915b505050505083600401548460060154612a18565b7f98496735484d70e9b5b0c07dfb20e5fa248a74a5d18a386526490f89d92ef4408160040154604051610c1891906146d0565b60405180910390a15050565b610c3f8383836040518060200160405280600081525061120a565b505050565b6000806002600084815260200190815260200160002060009054906101000a900473ffffffffffffffffffffffffffffffffffffffff169050600073ffffffffffffffffffffffffffffffffffffffff168173ffffffffffffffffffffffffffffffffffffffff161415610ced576040517f08c379a0000000000000000000000000000000000000000000000000000000008152600401610ce4906145ac565b60405180910390fd5b80915050919050565b60008073ffffffffffffffffffffffffffffffffffffffff168273ffffffffffffffffffffffffffffffffffffffff161415610d67576040517f08c379a0000000000000000000000000000000000000000000000000000000008152600401610d5e9061458c565b60405180910390fd5b600360008373ffffffffffffffffffffffffffffffffffffffff1673ffffffffffffffffffffffffffffffffffffffff168152602001908152602001600020549050919050565b60096020528060005260406000206000915090505481565b606060018054610dd590614a46565b80601f0160208091040260200160405190810160405280929190818152602001828054610e0190614a46565b8015610e4e5780601f10610e2357610100808354040283529160200191610e4e565b820191906000526020600020905b815481529060010190602001808311610e3157829003601f168201915b5050505050905090565b6008602052806000526040600020600091509050806000015490806001018054610e8190614a46565b80601f0160208091040260200160405190810160405280929190818152602001828054610ead90614a46565b8015610efa5780601f10610ecf57610100808354040283529160200191610efa565b820191906000526020600020905b815481529060010190602001808311610edd57829003601f168201915b505050505090806002018054610f0f90614a46565b80601f0160208091040260200160405190810160405280929190818152602001828054610f3b90614a46565b8015610f885780601f10610f5d57610100808354040283529160200191610f88565b820191906000526020600020905b815481529060010190602001808311610f6b57829003601f168201915b505050505090806003018054610f9d90614a46565b80601f0160208091040260200160405190810160405280929190818152602001828054610fc990614a46565b80156110165780601f10610feb57610100808354040283529160200191611016565b820191906000526020600020905b815481529060010190602001808311610ff957829003601f168201915b5050505050908060040154908060050154908060060154905087565b61104461103d61261d565b8383612b53565b5050565b600a80600001805461105990614a46565b80601f016020809104026020016040519081016040528092919081815260200182805461108590614a46565b80156110d25780601f106110a7576101008083540402835291602001916110d2565b820191906000526020600020905b8154815290600101906020018083116110b557829003601f168201915b5050505050908060010180546110e790614a46565b80601f016020809104026020016040519081016040528092919081815260200182805461111390614a46565b80156111605780601f1061113557610100808354040283529160200191611160565b820191906000526020600020905b81548152906001019060200180831161114357829003601f168201915b50505050509080600201805461117590614a46565b80601f01602080910402602001604051908101604052809291908181526020018280546111a190614a46565b80156111ee5780601f106111c3576101008083540402835291602001916111ee565b820191906000526020600020905b8154815290600101906020018083116111d157829003601f168201915b5050505050908060030154908060040154908060050154905086565b61121b61121561261d565b836126de565b61125a576040517f08c379a00000000000000000000000000000000000000000000000000000000081526004016112519061466c565b60405180910390fd5b61126684848484612cc0565b50505050565b60606007805480602002602001604051908101604052809291908181526020016000905b828210156114a057838290600052602060002090600702016040518060e0016040529081600082015481526020016001820180546112cd90614a46565b80601f01602080910402602001604051908101604052809291908181526020018280546112f990614a46565b80156113465780601f1061131b57610100808354040283529160200191611346565b820191906000526020600020905b81548152906001019060200180831161132957829003601f168201915b5050505050815260200160028201805461135f90614a46565b80601f016020809104026020016040519081016040528092919081815260200182805461138b90614a46565b80156113d85780601f106113ad576101008083540402835291602001916113d8565b820191906000526020600020905b8154815290600101906020018083116113bb57829003601f168201915b505050505081526020016003820180546113f190614a46565b80601f016020809104026020016040519081016040528092919081815260200182805461141d90614a46565b801561146a5780601f1061143f5761010080835404028352916020019161146a565b820191906000526020600020905b81548152906001019060200180831161144d57829003601f168201915b50505050508152602001600482015481526020016005820154815260200160068201548152505081526020019060010190611290565b50505050905090565b60606000600860008481526020019081526020016000206040518060e0016040529081600082015481526020016001820180546114e590614a46565b80601f016020809104026020016040519081016040528092919081815260200182805461151190614a46565b801561155e5780601f106115335761010080835404028352916020019161155e565b820191906000526020600020905b81548152906001019060200180831161154157829003601f168201915b5050505050815260200160028201805461157790614a46565b80601f01602080910402602001604051908101604052809291908181526020018280546115a390614a46565b80156115f05780601f106115c5576101008083540402835291602001916115f0565b820191906000526020600020905b8154815290600101906020018083116115d357829003601f168201915b5050505050815260200160038201805461160990614a46565b80601f016020809104026020016040519081016040528092919081815260200182805461163590614a46565b80156116825780601f1061165757610100808354040283529160200191611682565b820191906000526020600020905b81548152906001019060200180831161166557829003601f168201915b505050505081526020016004820154815260200160058201548152602001600682015481525050905060008160600151905060006116c38360800151612d1c565b905060006116d48460a00151612d1c565b905060006116e58560c00151612d1c565b9050600061172d86602001516116fa8a612d1c565b88604001518888888860405160200161171997969594939291906140d3565b604051602081830303815290604052612ec9565b9050600081604051602001611742919061419b565b604051602081830303815290604052905080975050505050505050919050565b61176a613609565b6000600960003373ffffffffffffffffffffffffffffffffffffffff1673ffffffffffffffffffffffffffffffffffffffff16815260200190815260200160002054905060008111156119bb57600860008281526020019081526020016000206040518060e0016040529081600082015481526020016001820180546117ef90614a46565b80601f016020809104026020016040519081016040528092919081815260200182805461181b90614a46565b80156118685780601f1061183d57610100808354040283529160200191611868565b820191906000526020600020905b81548152906001019060200180831161184b57829003601f168201915b5050505050815260200160028201805461188190614a46565b80601f01602080910402602001604051908101604052809291908181526020018280546118ad90614a46565b80156118fa5780601f106118cf576101008083540402835291602001916118fa565b820191906000526020600020905b8154815290600101906020018083116118dd57829003601f168201915b5050505050815260200160038201805461191390614a46565b80601f016020809104026020016040519081016040528092919081815260200182805461193f90614a46565b801561198c5780601f106119615761010080835404028352916020019161198c565b820191906000526020600020905b81548152906001019060200180831161196f57829003601f168201915b5050505050815260200160048201548152602001600582015481526020016006820154815250509150506119c9565b6119c3613609565b80925050505b90565b6000600960003373ffffffffffffffffffffffffffffffffffffffff1673ffffffffffffffffffffffffffffffffffffffff1681526020019081526020016000205490506000600860008381526020019081526020016000209050611adf6040518060600160405280603b81526020016153bd603b9139826001018054611a5290614a46565b80601f0160208091040260200160405190810160405280929190818152602001828054611a7e90614a46565b8015611acb5780601f10611aa057610100808354040283529160200191611acb565b820191906000526020600020905b815481529060010190602001808311611aae57829003601f168201915b505050505083600401548460060154612a18565b611bb76040518060400160405280601b81526020017f426f73732025732068617320257320485020616e642025732041440000000000815250600a6000018054611b2890614a46565b80601f0160208091040260200160405190810160405280929190818152602001828054611b5490614a46565b8015611ba15780601f10611b7657610100808354040283529160200191611ba1565b820191906000526020600020905b815481529060010190602001808311611b8457829003601f168201915b5050505050600a60030154600a60050154612a18565b6000816004015411611bfe576040517f08c379a0000000000000000000000000000000000000000000000000000000008152600401611bf5906145cc565b60405180910390fd5b6000600a6003015411611c46576040517f08c379a0000000000000000000000000000000000000000000000000000000008152600401611c3d906144cc565b60405180910390fd5b8060060154600a600301541015611c67576000600a60030181905550611c86565b8060060154600a60030154611c7c919061495c565b600a600301819055505b600a6005015481600401541015611ca65760008160040181905550611cc4565b600a600501548160040154611cbb919061495c565b81600401819055505b611d786040518060600160405280602d81526020016153f8602d9139826003018054611cef90614a46565b80601f0160208091040260200160405190810160405280929190818152602001828054611d1b90614a46565b8015611d685780601f10611d3d57610100808354040283529160200191611d68565b820191906000526020600020905b815481529060010190602001808311611d4b57829003601f168201915b5050505050600a60030154613068565b611e2c60405180606001604052806030815260200161532060309139600a6002018054611da490614a46565b80601f0160208091040260200160405190810160405280929190818152602001828054611dd090614a46565b8015611e1d5780601f10611df257610100808354040283529160200191611e1d565b820191906000526020600020905b815481529060010190602001808311611e0057829003601f168201915b50505050508360040154613068565b7f838ab28464562786a6c4ab2311964b82fa60bd9b14aa7e856af1f3f18d41a414600a600301548260040154604051611e6692919061476f565b60405180910390a15050565b6000600560008473ffffffffffffffffffffffffffffffffffffffff1673ffffffffffffffffffffffffffffffffffffffff16815260200190815260200160002060008373ffffffffffffffffffffffffffffffffffffffff1673ffffffffffffffffffffffffffffffffffffffff16815260200190815260200160002060009054906101000a900460ff16905092915050565b6000611f126006613107565b9050611f1e3382613115565b6040518060e0016040528083815260200160078481548110611f69577f4e487b7100000000000000000000000000000000000000000000000000000000600052603260045260246000fd5b90600052602060002090600702016001018054611f8590614a46565b80601f0160208091040260200160405190810160405280929190818152602001828054611fb190614a46565b8015611ffe5780601f10611fd357610100808354040283529160200191611ffe565b820191906000526020600020905b815481529060010190602001808311611fe157829003601f168201915b5050505050815260200160078481548110612042577f4e487b7100000000000000000000000000000000000000000000000000000000600052603260045260246000fd5b9060005260206000209060070201600201805461205e90614a46565b80601f016020809104026020016040519081016040528092919081815260200182805461208a90614a46565b80156120d75780601f106120ac576101008083540402835291602001916120d7565b820191906000526020600020905b8154815290600101906020018083116120ba57829003601f168201915b505050505081526020016007848154811061211b577f4e487b7100000000000000000000000000000000000000000000000000000000600052603260045260246000fd5b9060005260206000209060070201600301805461213790614a46565b80601f016020809104026020016040519081016040528092919081815260200182805461216390614a46565b80156121b05780601f10612185576101008083540402835291602001916121b0565b820191906000526020600020905b81548152906001019060200180831161219357829003601f168201915b50505050508152602001600784815481106121f4577f4e487b7100000000000000000000000000000000000000000000000000000000600052603260045260246000fd5b906000526020600020906007020160040154815260200160078481548110612245577f4e487b7100000000000000000000000000000000000000000000000000000000600052603260045260246000fd5b906000526020600020906007020160050154815260200160078481548110612296577f4e487b7100000000000000000000000000000000000000000000000000000000600052603260045260246000fd5b906000526020600020906007020160060154815250600860008381526020019081526020016000206000820151816000015560208201518160010190805190602001906122e4929190613646565b506040820151816002019080519060200190612301929190613646565b50606082015181600301908051906020019061231e929190613646565b506080820151816004015560a0820151816005015560c082015181600601559050506123636040518060600160405280602d8152602001615390602d91398284613133565b80600960003373ffffffffffffffffffffffffffffffffffffffff1673ffffffffffffffffffffffffffffffffffffffff168152602001908152602001600020819055506123b16006612531565b7f4bc303fd457a97b4691b9af582ce71868a3d258638c8d4f8c60988a0f0bfb8cd3382846040516123e493929190614224565b60405180910390a15050565b61248c8484848460405160240161240a94939291906143c1565b6040516020818303038152906040527f8d142cdd000000000000000000000000000000000000000000000000000000007bffffffffffffffffffffffffffffffffffffffffffffffffffffffff19166020820180517bffffffffffffffffffffffffffffffffffffffffffffffffffffffff83818316178352505050506131d2565b50505050565b61252c8383836040516024016124aa939291906142ba565b6040516020818303038152906040527f2ced7cef000000000000000000000000000000000000000000000000000000007bffffffffffffffffffffffffffffffffffffffffffffffffffffffff19166020820180517bffffffffffffffffffffffffffffffffffffffffffffffffffffffff83818316178352505050506131d2565b505050565b6001816000016000828254019250508190555050565b60007f01ffc9a7000000000000000000000000000000000000000000000000000000007bffffffffffffffffffffffffffffffffffffffffffffffffffffffff1916827bffffffffffffffffffffffffffffffffffffffffffffffffffffffff1916149050919050565b60008073ffffffffffffffffffffffffffffffffffffffff166002600084815260200190815260200160002060009054906101000a900473ffffffffffffffffffffffffffffffffffffffff1673ffffffffffffffffffffffffffffffffffffffff1614159050919050565b600033905090565b816004600083815260200190815260200160002060006101000a81548173ffffffffffffffffffffffffffffffffffffffff021916908373ffffffffffffffffffffffffffffffffffffffff160217905550808273ffffffffffffffffffffffffffffffffffffffff1661269883610c44565b73ffffffffffffffffffffffffffffffffffffffff167f8c5be1e5ebec7d5bd14f71427d1e84f3dd0314c0f7b2291e5b200ac8c7c3b92560405160405180910390a45050565b60006126e9826125b1565b612728576040517f08c379a000000000000000000000000000000000000000000000000000000000815260040161271f9061454c565b60405180910390fd5b600061273383610c44565b90508073ffffffffffffffffffffffffffffffffffffffff168473ffffffffffffffffffffffffffffffffffffffff1614806127a257508373ffffffffffffffffffffffffffffffffffffffff1661278a846107a4565b73ffffffffffffffffffffffffffffffffffffffff16145b806127b357506127b28185611e72565b5b91505092915050565b8273ffffffffffffffffffffffffffffffffffffffff166127dc82610c44565b73ffffffffffffffffffffffffffffffffffffffff1614612832576040517f08c379a00000000000000000000000000000000000000000000000000000000081526004016128299061462c565b60405180910390fd5b600073ffffffffffffffffffffffffffffffffffffffff168273ffffffffffffffffffffffffffffffffffffffff1614156128a2576040517f08c379a00000000000000000000000000000000000000000000000000000000081526004016128999061450c565b60405180910390fd5b6128ad8383836131fb565b6128b8600082612625565b6001600360008573ffffffffffffffffffffffffffffffffffffffff1673ffffffffffffffffffffffffffffffffffffffff1681526020019081526020016000206000828254612908919061495c565b925050819055506001600360008473ffffffffffffffffffffffffffffffffffffffff1673ffffffffffffffffffffffffffffffffffffffff168152602001908152602001600020600082825461295f919061487b565b92505081905550816002600083815260200190815260200160002060006101000a81548173ffffffffffffffffffffffffffffffffffffffff021916908373ffffffffffffffffffffffffffffffffffffffff160217905550808273ffffffffffffffffffffffffffffffffffffffff168473ffffffffffffffffffffffffffffffffffffffff167fddf252ad1be2c89b69c2b068fc378daa952ba7f163c4a11628f55a4df523b3ef60405160405180910390a4505050565b612ab484848484604051602401612a32949392919061441b565b6040516020818303038152906040527fd5cf17d0000000000000000000000000000000000000000000000000000000007bffffffffffffffffffffffffffffffffffffffffffffffffffffffff19166020820180517bffffffffffffffffffffffffffffffffffffffffffffffffffffffff83818316178352505050506131d2565b50505050565b612b5081604051602401612ace9190614298565b6040516020818303038152906040527f41304fac000000000000000000000000000000000000000000000000000000007bffffffffffffffffffffffffffffffffffffffffffffffffffffffff19166020820180517bffffffffffffffffffffffffffffffffffffffffffffffffffffffff83818316178352505050506131d2565b50565b8173ffffffffffffffffffffffffffffffffffffffff168373ffffffffffffffffffffffffffffffffffffffff161415612bc2576040517f08c379a0000000000000000000000000000000000000000000000000000000008152600401612bb99061452c565b60405180910390fd5b80600560008573ffffffffffffffffffffffffffffffffffffffff1673ffffffffffffffffffffffffffffffffffffffff16815260200190815260200160002060008473ffffffffffffffffffffffffffffffffffffffff1673ffffffffffffffffffffffffffffffffffffffff16815260200190815260200160002060006101000a81548160ff0219169083151502179055508173ffffffffffffffffffffffffffffffffffffffff168373ffffffffffffffffffffffffffffffffffffffff167f17307eab39ab6107e8899845ad3d59bd9653f200f220920489ca2b5937696c3183604051612cb3919061427d565b60405180910390a3505050565b612ccb8484846127bc565b612cd784848484613200565b612d16576040517f08c379a0000000000000000000000000000000000000000000000000000000008152600401612d0d906144ac565b60405180910390fd5b50505050565b60606000821415612d64576040518060400160405280600181526020017f30000000000000000000000000000000000000000000000000000000000000008152509050612ec4565b600082905060005b60008214612d96578080612d7f90614aa9565b915050600a82612d8f91906148d1565b9150612d6c565b60008167ffffffffffffffff811115612dd8577f4e487b7100000000000000000000000000000000000000000000000000000000600052604160045260246000fd5b6040519080825280601f01601f191660200182016040528015612e0a5781602001600182028036833780820191505090505b5090505b60008514612ebd57600182612e23919061495c565b9150600a85612e329190614af2565b6030612e3e919061487b565b60f81b818381518110612e7a577f4e487b7100000000000000000000000000000000000000000000000000000000600052603260045260246000fd5b60200101907effffffffffffffffffffffffffffffffffffffffffffffffffffffffffffff1916908160001a905350600a85612eb691906148d1565b9450612e0e565b8093505050505b919050565b6060600082511415612eec57604051806020016040528060008152509050613063565b60006040518060600160405280604081526020016153506040913990506000600360028551612f1b919061487b565b612f2591906148d1565b6004612f319190614902565b90506000602082612f42919061487b565b67ffffffffffffffff811115612f81577f4e487b7100000000000000000000000000000000000000000000000000000000600052604160045260246000fd5b6040519080825280601f01601f191660200182016040528015612fb35781602001600182028036833780820191505090505b509050818152600183018586518101602084015b81831015613022576003830192508251603f8160121c168501518253600182019150603f81600c1c168501518253600182019150603f8160061c168501518253600182019150603f8116850151825360018201915050612fc7565b60038951066001811461303c576002811461304c57613057565b613d3d60f01b6002830352613057565b603d60f81b60018303525b50505050508093505050505b919050565b6131028383836040516024016130809392919061437c565b6040516020818303038152906040527ff362ca59000000000000000000000000000000000000000000000000000000007bffffffffffffffffffffffffffffffffffffffffffffffffffffffff19166020820180517bffffffffffffffffffffffffffffffffffffffffffffffffffffffff83818316178352505050506131d2565b505050565b600081600001549050919050565b61312f828260405180602001604052806000815250613397565b5050565b6131cd83838360405160240161314b9392919061446e565b6040516020818303038152906040527f969cdd03000000000000000000000000000000000000000000000000000000007bffffffffffffffffffffffffffffffffffffffffffffffffffffffff19166020820180517bffffffffffffffffffffffffffffffffffffffffffffffffffffffff83818316178352505050506131d2565b505050565b60008151905060006a636f6e736f6c652e6c6f679050602083016000808483855afa5050505050565b505050565b60006132218473ffffffffffffffffffffffffffffffffffffffff166133f2565b1561338a578373ffffffffffffffffffffffffffffffffffffffff1663150b7a0261324a61261d565b8786866040518563ffffffff1660e01b815260040161326c94939291906141d8565b602060405180830381600087803b15801561328657600080fd5b505af19250505080156132b757506040513d601f19601f820116820180604052508101906132b4919061398a565b60015b61333a573d80600081146132e7576040519150601f19603f3d011682016040523d82523d6000602084013e6132ec565b606091505b50600081511415613332576040517f08c379a0000000000000000000000000000000000000000000000000000000008152600401613329906144ac565b60405180910390fd5b805181602001fd5b63150b7a0260e01b7bffffffffffffffffffffffffffffffffffffffffffffffffffffffff1916817bffffffffffffffffffffffffffffffffffffffffffffffffffffffff19161491505061338f565b600190505b949350505050565b6133a18383613405565b6133ae6000848484613200565b6133ed576040517f08c379a00000000000000000000000000000000000000000000000000000000081526004016133e4906144ac565b60405180910390fd5b505050565b600080823b905060008111915050919050565b600073ffffffffffffffffffffffffffffffffffffffff168273ffffffffffffffffffffffffffffffffffffffff161415613475576040517f08c379a000000000000000000000000000000000000000000000000000000000815260040161346c906145ec565b60405180910390fd5b61347e816125b1565b156134be576040517f08c379a00000000000000000000000000000000000000000000000000000000081526004016134b5906144ec565b60405180910390fd5b6134ca600083836131fb565b6001600360008473ffffffffffffffffffffffffffffffffffffffff1673ffffffffffffffffffffffffffffffffffffffff168152602001908152602001600020600082825461351a919061487b565b92505081905550816002600083815260200190815260200160002060006101000a81548173ffffffffffffffffffffffffffffffffffffffff021916908373ffffffffffffffffffffffffffffffffffffffff160217905550808273ffffffffffffffffffffffffffffffffffffffff16600073ffffffffffffffffffffffffffffffffffffffff167fddf252ad1be2c89b69c2b068fc378daa952ba7f163c4a11628f55a4df523b3ef60405160405180910390a45050565b6040518060c001604052806060815260200160608152602001606081526020016000815260200160008152602001600081525090565b6040518060e00160405280600081526020016060815260200160608152602001606081526020016000815260200160008152602001600081525090565b82805461365290614a46565b90600052602060002090601f01602090048101928261367457600085556136bb565b82601f1061368d57805160ff19168380011785556136bb565b828001600101855582156136bb579182015b828111156136ba57825182559160200191906001019061369f565b5b5090506136c891906136cc565b5090565b5b808211156136e55760008160009055506001016136cd565b5090565b60006136fc6136f7846147bd565b614798565b90508281526020810184848401111561371457600080fd5b61371f848285614a04565b509392505050565b600081359050613736816152c3565b92915050565b60008135905061374b816152da565b92915050565b600081359050613760816152f1565b92915050565b600081519050613775816152f1565b92915050565b600082601f83011261378c57600080fd5b813561379c8482602086016136e9565b91505092915050565b6000813590506137b481615308565b92915050565b6000602082840312156137cc57600080fd5b60006137da84828501613727565b91505092915050565b600080604083850312156137f657600080fd5b600061380485828601613727565b925050602061381585828601613727565b9150509250929050565b60008060006060848603121561383457600080fd5b600061384286828701613727565b935050602061385386828701613727565b9250506040613864868287016137a5565b9150509250925092565b6000806000806080858703121561388457600080fd5b600061389287828801613727565b94505060206138a387828801613727565b93505060406138b4878288016137a5565b925050606085013567ffffffffffffffff8111156138d157600080fd5b6138dd8782880161377b565b91505092959194509250565b600080604083850312156138fc57600080fd5b600061390a85828601613727565b925050602061391b8582860161373c565b9150509250929050565b6000806040838503121561393857600080fd5b600061394685828601613727565b9250506020613957858286016137a5565b9150509250929050565b60006020828403121561397357600080fd5b600061398184828501613751565b91505092915050565b60006020828403121561399c57600080fd5b60006139aa84828501613766565b91505092915050565b6000602082840312156139c557600080fd5b60006139d3848285016137a5565b91505092915050565b60006139e88383613f61565b905092915050565b6139f981614990565b82525050565b6000613a0a826147fe565b613a14818561482c565b935083602082028501613a26856147ee565b8060005b85811015613a625784840389528151613a4385826139dc565b9450613a4e8361481f565b925060208a01995050600181019050613a2a565b50829750879550505050505092915050565b613a7d816149a2565b82525050565b6000613a8e82614809565b613a98818561483d565b9350613aa8818560208601614a13565b613ab181614bdf565b840191505092915050565b6000613ac782614814565b613ad1818561484e565b9350613ae1818560208601614a13565b613aea81614bdf565b840191505092915050565b6000613b0082614814565b613b0a818561485f565b9350613b1a818560208601614a13565b613b2381614bdf565b840191505092915050565b6000613b3982614814565b613b438185614870565b9350613b53818560208601614a13565b80840191505092915050565b6000613b6c600b83614870565b9150613b7782614bf0565b600b82019050919050565b6000613b8f606983614870565b9150613b9a82614c19565b606982019050919050565b6000613bb260328361485f565b9150613bbd82614cb4565b604082019050919050565b6000613bd560288361485f565b9150613be082614d03565b604082019050919050565b6000613bf8601c8361485f565b9150613c0382614d52565b602082019050919050565b6000613c1b600e83614870565b9150613c2682614d7b565b600e82019050919050565b6000613c3e60248361485f565b9150613c4982614da4565b604082019050919050565b6000613c6160198361485f565b9150613c6c82614df3565b602082019050919050565b6000613c84602c8361485f565b9150613c8f82614e1c565b604082019050919050565b6000613ca760388361485f565b9150613cb282614e6b565b604082019050919050565b6000613cca600183614870565b9150613cd582614eba565b600182019050919050565b6000613ced602a8361485f565b9150613cf882614ee3565b604082019050919050565b6000613d1060298361485f565b9150613d1b82614f32565b604082019050919050565b6000613d33602d8361485f565b9150613d3e82614f81565b604082019050919050565b6000613d56600483614870565b9150613d6182614fd0565b600482019050919050565b6000613d7960208361485f565b9150613d8482614ff9565b602082019050919050565b6000613d9c602c8361485f565b9150613da782615022565b604082019050919050565b6000613dbf60298361485f565b9150613dca82615071565b604082019050919050565b6000613de2600a83614870565b9150613ded826150c0565b600a82019050919050565b6000613e0560218361485f565b9150613e10826150e9565b604082019050919050565b6000613e28604283614870565b9150613e3382615138565b604282019050919050565b6000613e4b601d83614870565b9150613e56826151ad565b601d82019050919050565b6000613e6e60318361485f565b9150613e79826151d6565b604082019050919050565b6000613e91602d83614870565b9150613e9c82615225565b602d82019050919050565b6000613eb4602c83614870565b9150613ebf82615274565b602c82019050919050565b600060c0830160008301518482036000860152613ee78282613abc565b91505060208301518482036020860152613f018282613abc565b91505060408301518482036040860152613f1b8282613abc565b9150506060830151613f3060608601826140b5565b506080830151613f4360808601826140b5565b5060a0830151613f5660a08601826140b5565b508091505092915050565b600060e083016000830151613f7960008601826140b5565b5060208301518482036020860152613f918282613abc565b91505060408301518482036040860152613fab8282613abc565b91505060608301518482036060860152613fc58282613abc565b9150506080830151613fda60808601826140b5565b5060a0830151613fed60a08601826140b5565b5060c083015161400060c08601826140b5565b508091505092915050565b600060e08301600083015161402360008601826140b5565b506020830151848203602086015261403b8282613abc565b915050604083015184820360408601526140558282613abc565b9150506060830151848203606086015261406f8282613abc565b915050608083015161408460808601826140b5565b5060a083015161409760a08601826140b5565b5060c08301516140aa60c08601826140b5565b508091505092915050565b6140be816149fa565b82525050565b6140cd816149fa565b82525050565b60006140de82613dd5565b91506140ea828a613b2e565b91506140f582613b5f565b91506141018289613b2e565b915061410c82613b82565b91506141188288613b2e565b915061412382613e1b565b915061412f8287613b2e565b915061413a82613cbd565b915061414582613ea7565b91506141518286613b2e565b915061415c82613c0e565b91506141688285613b2e565b915061417382613e84565b915061417f8284613b2e565b915061418a82613d49565b915081905098975050505050505050565b60006141a682613e3e565b91506141b28284613b2e565b915081905092915050565b60006020820190506141d260008301846139f0565b92915050565b60006080820190506141ed60008301876139f0565b6141fa60208301866139f0565b61420760408301856140c4565b81810360608301526142198184613a83565b905095945050505050565b600060608201905061423960008301866139f0565b61424660208301856140c4565b61425360408301846140c4565b949350505050565b6000602082019050818103600083015261427581846139ff565b905092915050565b60006020820190506142926000830184613a74565b92915050565b600060208201905081810360008301526142b28184613af5565b905092915050565b600060608201905081810360008301526142d48186613af5565b905081810360208301526142e88185613af5565b905081810360408301526142fc8184613af5565b9050949350505050565b600060c08201905081810360008301526143208189613af5565b905081810360208301526143348188613af5565b905081810360408301526143488187613af5565b905061435760608301866140c4565b61436460808301856140c4565b61437160a08301846140c4565b979650505050505050565b600060608201905081810360008301526143968186613af5565b905081810360208301526143aa8185613af5565b90506143b960408301846140c4565b949350505050565b600060808201905081810360008301526143db8187613af5565b905081810360208301526143ef8186613af5565b90506143fe60408301856140c4565b81810360608301526144108184613af5565b905095945050505050565b600060808201905081810360008301526144358187613af5565b905081810360208301526144498186613af5565b905061445860408301856140c4565b61446560608301846140c4565b95945050505050565b600060608201905081810360008301526144888186613af5565b905061449760208301856140c4565b6144a460408301846140c4565b949350505050565b600060208201905081810360008301526144c581613ba5565b9050919050565b600060208201905081810360008301526144e581613bc8565b9050919050565b6000602082019050818103600083015261450581613beb565b9050919050565b6000602082019050818103600083015261452581613c31565b9050919050565b6000602082019050818103600083015261454581613c54565b9050919050565b6000602082019050818103600083015261456581613c77565b9050919050565b6000602082019050818103600083015261458581613c9a565b9050919050565b600060208201905081810360008301526145a581613ce0565b9050919050565b600060208201905081810360008301526145c581613d03565b9050919050565b600060208201905081810360008301526145e581613d26565b9050919050565b6000602082019050818103600083015261460581613d6c565b9050919050565b6000602082019050818103600083015261462581613d8f565b9050919050565b6000602082019050818103600083015261464581613db2565b9050919050565b6000602082019050818103600083015261466581613df8565b9050919050565b6000602082019050818103600083015261468581613e61565b9050919050565b600060208201905081810360008301526146a68184613eca565b905092915050565b600060208201905081810360008301526146c8818461400b565b905092915050565b60006020820190506146e560008301846140c4565b92915050565b600060e082019050614700600083018a6140c4565b81810360208301526147128189613af5565b905081810360408301526147268188613af5565b9050818103606083015261473a8187613af5565b905061474960808301866140c4565b61475660a08301856140c4565b61476360c08301846140c4565b98975050505050505050565b600060408201905061478460008301856140c4565b61479160208301846140c4565b9392505050565b60006147a26147b3565b90506147ae8282614a78565b919050565b6000604051905090565b600067ffffffffffffffff8211156147d8576147d7614bb0565b5b6147e182614bdf565b9050602081019050919050565b6000819050602082019050919050565b600081519050919050565b600081519050919050565b600081519050919050565b6000602082019050919050565b600082825260208201905092915050565b600082825260208201905092915050565b600082825260208201905092915050565b600082825260208201905092915050565b600081905092915050565b6000614886826149fa565b9150614891836149fa565b9250827fffffffffffffffffffffffffffffffffffffffffffffffffffffffffffffffff038211156148c6576148c5614b23565b5b828201905092915050565b60006148dc826149fa565b91506148e7836149fa565b9250826148f7576148f6614b52565b5b828204905092915050565b600061490d826149fa565b9150614918836149fa565b9250817fffffffffffffffffffffffffffffffffffffffffffffffffffffffffffffffff048311821515161561495157614950614b23565b5b828202905092915050565b6000614967826149fa565b9150614972836149fa565b92508282101561498557614984614b23565b5b828203905092915050565b600061499b826149da565b9050919050565b60008115159050919050565b60007fffffffff0000000000000000000000000000000000000000000000000000000082169050919050565b600073ffffffffffffffffffffffffffffffffffffffff82169050919050565b6000819050919050565b82818337600083830152505050565b60005b83811015614a31578082015181840152602081019050614a16565b83811115614a40576000848401525b50505050565b60006002820490506001821680614a5e57607f821691505b60208210811415614a7257614a71614b81565b5b50919050565b614a8182614bdf565b810181811067ffffffffffffffff82111715614aa057614a9f614bb0565b5b80604052505050565b6000614ab4826149fa565b91507fffffffffffffffffffffffffffffffffffffffffffffffffffffffffffffffff821415614ae757614ae6614b23565b5b600182019050919050565b6000614afd826149fa565b9150614b08836149fa565b925082614b1857614b17614b52565b5b828206905092915050565b7f4e487b7100000000000000000000000000000000000000000000000000000000600052601160045260246000fd5b7f4e487b7100000000000000000000000000000000000000000000000000000000600052601260045260246000fd5b7f4e487b7100000000000000000000000000000000000000000000000000000000600052602260045260246000fd5b7f4e487b7100000000000000000000000000000000000000000000000000000000600052604160045260246000fd5b6000601f19601f8301169050919050565b7f202d2d204e465420233a20000000000000000000000000000000000000000000600082015250565b7f222c20226465736372697074696f6e223a20225468697320697320616e204e4660008201527f542074686174206c6574732070656f706c6520706c617920696e20746865206760208201527f616d6520537469636b6d616e20426174746c657321222c2022696d616765223a60408201527f2022697066733a2f2f0000000000000000000000000000000000000000000000606082015250565b7f4552433732313a207472616e7366657220746f206e6f6e20455243373231526560008201527f63656976657220696d706c656d656e7465720000000000000000000000000000602082015250565b7f4572726f723a20626f7373206d757374206861766520485020746f206174746160008201527f636b20626f73732e000000000000000000000000000000000000000000000000602082015250565b7f4552433732313a20746f6b656e20616c7265616479206d696e74656400000000600082015250565b7f2c20226d61785f76616c7565223a000000000000000000000000000000000000600082015250565b7f4552433732313a207472616e7366657220746f20746865207a65726f2061646460008201527f7265737300000000000000000000000000000000000000000000000000000000602082015250565b7f4552433732313a20617070726f766520746f2063616c6c657200000000000000600082015250565b7f4552433732313a206f70657261746f7220717565727920666f72206e6f6e657860008201527f697374656e7420746f6b656e0000000000000000000000000000000000000000602082015250565b7f4552433732313a20617070726f76652063616c6c6572206973206e6f74206f7760008201527f6e6572206e6f7220617070726f76656420666f7220616c6c0000000000000000602082015250565b7f2200000000000000000000000000000000000000000000000000000000000000600082015250565b7f4552433732313a2062616c616e636520717565727920666f7220746865207a6560008201527f726f206164647265737300000000000000000000000000000000000000000000602082015250565b7f4552433732313a206f776e657220717565727920666f72206e6f6e657869737460008201527f656e7420746f6b656e0000000000000000000000000000000000000000000000602082015250565b7f4572726f723a20636861726163746572206d757374206861766520485020746f60008201527f2061747461636b20626f73732e00000000000000000000000000000000000000602082015250565b7f7d205d7d00000000000000000000000000000000000000000000000000000000600082015250565b7f4552433732313a206d696e7420746f20746865207a65726f2061646472657373600082015250565b7f4552433732313a20617070726f76656420717565727920666f72206e6f6e657860008201527f697374656e7420746f6b656e0000000000000000000000000000000000000000602082015250565b7f4552433732313a207472616e73666572206f6620746f6b656e2074686174206960008201527f73206e6f74206f776e0000000000000000000000000000000000000000000000602082015250565b7f7b226e616d65223a202200000000000000000000000000000000000000000000600082015250565b7f4552433732313a20617070726f76616c20746f2063757272656e74206f776e6560008201527f7200000000000000000000000000000000000000000000000000000000000000602082015250565b7f222c202261747472696275746573223a205b207b202274726169745f7479706560008201527f223a202250726566657272656420576561706f6e222c202276616c756522203a60208201527f2022000000000000000000000000000000000000000000000000000000000000604082015250565b7f646174613a6170706c69636174696f6e2f6a736f6e3b6261736536342c000000600082015250565b7f4552433732313a207472616e736665722063616c6c6572206973206e6f74206f60008201527f776e6572206e6f7220617070726f766564000000000000000000000000000000602082015250565b7f7d2c207b202274726169745f74797065223a202241747461636b2044616d616760008201527f65222c202276616c7565223a2000000000000000000000000000000000000000602082015250565b7f7d2c207b2274726169745f74797065223a20224865616c746820506f696e747360008201527f222c202276616c756522203a0000000000000000000000000000000000000000602082015250565b6152cc81614990565b81146152d757600080fd5b50565b6152e3816149a2565b81146152ee57600080fd5b50565b6152fa816149ae565b811461530557600080fd5b50565b615311816149fa565b811461531c57600080fd5b5056fe426f73732061747461636b656420706c6179657220776974682025732e204e657720706c617965722068703a2025730a4142434445464748494a4b4c4d4e4f505152535455565758595a6162636465666768696a6b6c6d6e6f707172737475767778797a303132333435363738392b2f4d696e746564204e465420772f746f6b656e496420257320616e6420636861726163746572496e6465782025730a506c6179657220772f6368617261637465722025732061626f757420746f2061747461636b2e2048617320257320485020616e64202573204144506c617965722061747461636b656420626f737320776974682025732e204e657720626f73732068703a202573506c617965722063616e6e6f742061747461636b2c206865616c7468206973207a65726f2e205265766976696e672066697273742ea2646970667358221220f9906938806c6a540627596fffffdaeba23008fb69040db8be93e5d597589c0664736f6c63430008040033446f6e6520696e697469616c697a696e67202573207769746820772f48502025732c20696d67202573446f6e6520696e697469616c697a696e6720626f737320257320772f48502025732c20696d67202573",
  "linkReferences": {},
  "deployedLinkReferences": {}
}